{
  "contractName": "ColorMarketplace",
  "abi": [
    {
      "inputs": [
        {
          "internalType": "contract Color",
          "name": "_token",
          "type": "address"
        }
      ],
      "stateMutability": "nonpayable",
      "type": "constructor"
    },
    {
      "anonymous": false,
      "inputs": [
        {
          "indexed": false,
          "internalType": "uint256",
          "name": "id",
          "type": "uint256"
        },
        {
          "indexed": false,
          "internalType": "uint256",
          "name": "tokenId",
          "type": "uint256"
        },
        {
          "indexed": false,
          "internalType": "uint256",
          "name": "price",
          "type": "uint256"
        }
      ],
      "name": "itemAddedForSale",
      "type": "event"
    },
    {
      "anonymous": false,
      "inputs": [
        {
          "indexed": false,
          "internalType": "uint256",
          "name": "id",
          "type": "uint256"
        },
        {
          "indexed": false,
          "internalType": "address",
          "name": "buyer",
          "type": "address"
        },
        {
          "indexed": false,
          "internalType": "uint256",
          "name": "price",
          "type": "uint256"
        }
      ],
      "name": "itemSold",
      "type": "event"
    },
    {
      "inputs": [
        {
          "internalType": "uint256",
          "name": "",
          "type": "uint256"
        }
      ],
      "name": "itemsForSale",
      "outputs": [
        {
          "internalType": "uint256",
          "name": "id",
          "type": "uint256"
        },
        {
          "internalType": "uint256",
          "name": "tokenId",
          "type": "uint256"
        },
        {
          "internalType": "address payable",
          "name": "seller",
          "type": "address"
        },
        {
          "internalType": "uint256",
          "name": "price",
          "type": "uint256"
        },
        {
          "internalType": "bool",
          "name": "isSold",
          "type": "bool"
        }
      ],
      "stateMutability": "view",
      "type": "function",
      "constant": true
    },
    {
      "inputs": [
        {
          "internalType": "uint256",
          "name": "tokenId",
          "type": "uint256"
        },
        {
          "internalType": "uint256",
          "name": "price",
          "type": "uint256"
        }
      ],
      "name": "putItemForSale",
      "outputs": [
        {
          "internalType": "uint256",
          "name": "",
          "type": "uint256"
        }
      ],
      "stateMutability": "nonpayable",
      "type": "function"
    },
    {
      "inputs": [
        {
          "internalType": "uint256",
          "name": "id",
          "type": "uint256"
        }
      ],
      "name": "buyItem",
      "outputs": [],
      "stateMutability": "payable",
      "type": "function",
      "payable": true
    }
  ],
  "bytecode": "0x60806040523480156200001157600080fd5b50604051620010d8380380620010d8833981810160405281019062000037919062000095565b806000806101000a81548173ffffffffffffffffffffffffffffffffffffffff021916908373ffffffffffffffffffffffffffffffffffffffff160217905550506200012e565b6000815190506200008f8162000114565b92915050565b600060208284031215620000ae57620000ad6200010f565b5b6000620000be848285016200007e565b91505092915050565b6000620000d482620000ef565b9050919050565b6000620000e882620000c7565b9050919050565b600073ffffffffffffffffffffffffffffffffffffffff82169050919050565b600080fd5b6200011f81620000db565b81146200012b57600080fd5b50565b610f9a806200013e6000396000f3fe6080604052600436106100345760003560e01c8063092d0afc14610039578063e7fb74c71461007a578063f4f3576414610096575b600080fd5b34801561004557600080fd5b50610060600480360381019061005b9190610ab7565b6100d3565b604051610071959493929190610d04565b60405180910390f35b610094600480360381019061008f9190610ab7565b610146565b005b3480156100a257600080fd5b506100bd60048036038101906100b89190610ae4565b610697565b6040516100ca9190610cb2565b60405180910390f35b600181815481106100e357600080fd5b90600052602060002090600502016000915090508060000154908060010154908060020160009054906101000a900473ffffffffffffffffffffffffffffffffffffffff16908060030154908060040160009054906101000a900460ff16905085565b806001805490508110801561017f5750806001828154811061016b5761016a610e5e565b5b906000526020600020906005020160000154145b6101be576040517f08c379a00000000000000000000000000000000000000000000000000000000081526004016101b590610c52565b60405180910390fd5b81600181815481106101d3576101d2610e5e565b5b906000526020600020906005020160040160009054906101000a900460ff1615610232576040517f08c379a000000000000000000000000000000000000000000000000000000000815260040161022990610c92565b60405180910390fd5b6001838154811061024657610245610e5e565b5b9060005260206000209060050201600101543073ffffffffffffffffffffffffffffffffffffffff1660008054906101000a900473ffffffffffffffffffffffffffffffffffffffff1673ffffffffffffffffffffffffffffffffffffffff1663081812fc836040518263ffffffff1660e01b81526004016102c89190610cb2565b60206040518083038186803b1580156102e057600080fd5b505afa1580156102f4573d6000803e3d6000fd5b505050506040513d601f19601f820116820180604052508101906103189190610a8a565b73ffffffffffffffffffffffffffffffffffffffff161461033857600080fd5b6001848154811061034c5761034b610e5e565b5b9060005260206000209060050201600301543410156103a0576040517f08c379a000000000000000000000000000000000000000000000000000000000815260040161039790610c32565b60405180910390fd5b600184815481106103b4576103b3610e5e565b5b906000526020600020906005020160020160009054906101000a900473ffffffffffffffffffffffffffffffffffffffff1673ffffffffffffffffffffffffffffffffffffffff163373ffffffffffffffffffffffffffffffffffffffff16141561041e57600080fd5b600180858154811061043357610432610e5e565b5b906000526020600020906005020160040160006101000a81548160ff0219169083151502179055506000600260006001878154811061047557610474610e5e565b5b906000526020600020906005020160010154815260200190815260200160002060006101000a81548160ff02191690831515021790555060008054906101000a900473ffffffffffffffffffffffffffffffffffffffff1673ffffffffffffffffffffffffffffffffffffffff166342842e0e600186815481106104fc576104fb610e5e565b5b906000526020600020906005020160020160009054906101000a900473ffffffffffffffffffffffffffffffffffffffff16336001888154811061054357610542610e5e565b5b9060005260206000209060050201600101546040518463ffffffff1660e01b815260040161057393929190610bfb565b600060405180830381600087803b15801561058d57600080fd5b505af11580156105a1573d6000803e3d6000fd5b50505050600184815481106105b9576105b8610e5e565b5b906000526020600020906005020160020160009054906101000a900473ffffffffffffffffffffffffffffffffffffffff1673ffffffffffffffffffffffffffffffffffffffff166108fc349081150290604051600060405180830381858888f19350505050158015610630573d6000803e3d6000fd5b507f8164c6f8917e418c49813e4586897c7067de5a886aa1bea980cd11fa57d4826484336001878154811061066857610667610e5e565b5b90600052602060002090600502016003015460405161068993929190610ccd565b60405180910390a150505050565b6000823373ffffffffffffffffffffffffffffffffffffffff1660008054906101000a900473ffffffffffffffffffffffffffffffffffffffff1673ffffffffffffffffffffffffffffffffffffffff16636352211e836040518263ffffffff1660e01b815260040161070a9190610cb2565b60206040518083038186803b15801561072257600080fd5b505afa158015610736573d6000803e3d6000fd5b505050506040513d601f19601f8201168201806040525081019061075a9190610a8a565b73ffffffffffffffffffffffffffffffffffffffff161461077a57600080fd5b833073ffffffffffffffffffffffffffffffffffffffff1660008054906101000a900473ffffffffffffffffffffffffffffffffffffffff1673ffffffffffffffffffffffffffffffffffffffff1663081812fc836040518263ffffffff1660e01b81526004016107eb9190610cb2565b60206040518083038186803b15801561080357600080fd5b505afa158015610817573d6000803e3d6000fd5b505050506040513d601f19601f8201168201806040525081019061083b9190610a8a565b73ffffffffffffffffffffffffffffffffffffffff161461085b57600080fd5b6002600086815260200190815260200160002060009054906101000a900460ff16156108bc576040517f08c379a00000000000000000000000000000000000000000000000000000000081526004016108b390610c72565b60405180910390fd5b6000600180549050905060016040518060a001604052808381526020018881526020013373ffffffffffffffffffffffffffffffffffffffff168152602001878152602001600015158152509080600181540180825580915050600190039060005260206000209060050201600090919091909150600082015181600001556020820151816001015560408201518160020160006101000a81548173ffffffffffffffffffffffffffffffffffffffff021916908373ffffffffffffffffffffffffffffffffffffffff1602179055506060820151816003015560808201518160040160006101000a81548160ff021916908315150217905550505060016002600088815260200190815260200160002060006101000a81548160ff02191690831515021790555080600182815481106109f9576109f8610e5e565b5b90600052602060002090600502016000015414610a1957610a18610e2f565b5b7fafd8780f802588de8705083b0f6a33ac59b8d0228c80f9babe0549c1621c33f8818787604051610a4c93929190610d57565b60405180910390a180935050505092915050565b600081519050610a6f81610f36565b92915050565b600081359050610a8481610f4d565b92915050565b600060208284031215610aa057610a9f610e8d565b5b6000610aae84828501610a60565b91505092915050565b600060208284031215610acd57610acc610e8d565b5b6000610adb84828501610a75565b91505092915050565b60008060408385031215610afb57610afa610e8d565b5b6000610b0985828601610a75565b9250506020610b1a85828601610a75565b9150509250929050565b610b2d81610df9565b82525050565b610b3c81610db1565b82525050565b610b4b81610d9f565b82525050565b610b5a81610dc3565b82525050565b6000610b6d601583610d8e565b9150610b7882610e92565b602082019050919050565b6000610b90601383610d8e565b9150610b9b82610ebb565b602082019050919050565b6000610bb3601b83610d8e565b9150610bbe82610ee4565b602082019050919050565b6000610bd6601483610d8e565b9150610be182610f0d565b602082019050919050565b610bf581610def565b82525050565b6000606082019050610c106000830186610b24565b610c1d6020830185610b42565b610c2a6040830184610bec565b949350505050565b60006020820190508181036000830152610c4b81610b60565b9050919050565b60006020820190508181036000830152610c6b81610b83565b9050919050565b60006020820190508181036000830152610c8b81610ba6565b9050919050565b60006020820190508181036000830152610cab81610bc9565b9050919050565b6000602082019050610cc76000830184610bec565b92915050565b6000606082019050610ce26000830186610bec565b610cef6020830185610b42565b610cfc6040830184610bec565b949350505050565b600060a082019050610d196000830188610bec565b610d266020830187610bec565b610d336040830186610b33565b610d406060830185610bec565b610d4d6080830184610b51565b9695505050505050565b6000606082019050610d6c6000830186610bec565b610d796020830185610bec565b610d866040830184610bec565b949350505050565b600082825260208201905092915050565b6000610daa82610dcf565b9050919050565b6000610dbc82610dcf565b9050919050565b60008115159050919050565b600073ffffffffffffffffffffffffffffffffffffffff82169050919050565b6000819050919050565b6000610e0482610e0b565b9050919050565b6000610e1682610e1d565b9050919050565b6000610e2882610dcf565b9050919050565b7f4e487b7100000000000000000000000000000000000000000000000000000000600052600160045260246000fd5b7f4e487b7100000000000000000000000000000000000000000000000000000000600052603260045260246000fd5b600080fd5b7f4e6f7420656e6f7567682066756e64732073656e740000000000000000000000600082015250565b7f436f756c64206e6f742066696e64206974656d00000000000000000000000000600082015250565b7f4974656d20697320616c726561647920757020666f722073616c650000000000600082015250565b7f4974656d20697320616c726561647920736f6c64000000000000000000000000600082015250565b610f3f81610d9f565b8114610f4a57600080fd5b50565b610f5681610def565b8114610f6157600080fd5b5056fea2646970667358221220b7adf29c955cc19cf835eed387fde0e983304215d65ac35426fbe32f5693f39564736f6c63430008060033",
  "immutableReferences": {},
  "source": "// SPDX-License-Identifier: MIT\npragma solidity ^0.8.0;\n\nimport \"./Color.sol\";\n\ncontract ColorMarketplace {\n  Color private token;\n\n  struct ItemForSale {\n    uint256 id;\n    uint256 tokenId;\n    address payable seller;\n    uint256 price;\n    bool isSold;\n  }\n\n  ItemForSale[] public itemsForSale;\n  mapping(uint256 => bool) activeItems; // tokenId => ativo?\n\n  event itemAddedForSale(uint256 id, uint256 tokenId, uint256 price);\n  event itemSold(uint256 id, address buyer, uint256 price);\n\n  constructor(Color _token) {\n      token = _token;\n  }\n\n  modifier OnlyItemOwner(uint256 tokenId){\n    require(token.ownerOf(tokenId) == msg.sender);\n    _;\n  }\n\n  modifier HasTransferApproval(uint256 tokenId){\n    require(token.getApproved(tokenId) == address(this));\n    _;\n  }\n\n  modifier ItemExists(uint256 id){\n    require(id < itemsForSale.length && itemsForSale[id].id == id, \"Could not find item\");\n    _;\n  }\n\n  modifier IsForSale(uint256 id){\n    require(!itemsForSale[id].isSold, \"Item is already sold\");\n    _;\n  }\n\n  function putItemForSale(uint256 tokenId, uint256 price) \n    OnlyItemOwner(tokenId) \n    HasTransferApproval(tokenId) \n    external \n    returns (uint256){\n      require(!activeItems[tokenId], \"Item is already up for sale\");\n\n      uint256 newItemId = itemsForSale.length;\n      itemsForSale.push(ItemForSale({\n        id: newItemId,\n        tokenId: tokenId,\n        seller: payable(msg.sender),\n        price: price,\n        isSold: false\n      }));\n      activeItems[tokenId] = true;\n\n      assert(itemsForSale[newItemId].id == newItemId);\n      emit itemAddedForSale(newItemId, tokenId, price);\n      return newItemId;\n  }\n\n  function buyItem(uint256 id) \n    ItemExists(id)\n    IsForSale(id)\n    HasTransferApproval(itemsForSale[id].tokenId)\n    payable \n    external {\n      require(msg.value >= itemsForSale[id].price, \"Not enough funds sent\");\n      require(msg.sender != itemsForSale[id].seller);\n\n      itemsForSale[id].isSold = true;\n      activeItems[itemsForSale[id].tokenId] = false;\n      token.safeTransferFrom(itemsForSale[id].seller, msg.sender, itemsForSale[id].tokenId);\n      itemsForSale[id].seller.transfer(msg.value);\n\n      emit itemSold(id, msg.sender, itemsForSale[id].price);\n    }\n}\n\n//TODO:\n// - don't support bidding\n// - the user can't withdraw the item\n",
  "sourcePath": "/home/bravo/Documents/GitHub/NFT-Marketplace/src/contracts/ColorMarketplace.sol",
  "compiler": {
    "name": "solc",
    "version": "0.8.6+commit.11564f7e.Emscripten.clang"
  },
  "schemaVersion": "3.4.1",
  "updatedAt": "2021-07-13T09:48:33.722Z",
  "networkType": "ethereum",
  "devdoc": {
    "kind": "dev",
    "methods": {},
    "version": 1
  },
  "userdoc": {
    "kind": "user",
    "methods": {},
    "version": 1
  }
}