{
  "contractName": "Color",
  "abi": [
    {
      "inputs": [],
      "stateMutability": "nonpayable",
      "type": "constructor"
    },
    {
      "anonymous": false,
      "inputs": [
        {
          "indexed": true,
          "internalType": "address",
          "name": "owner",
          "type": "address"
        },
        {
          "indexed": true,
          "internalType": "address",
          "name": "approved",
          "type": "address"
        },
        {
          "indexed": true,
          "internalType": "uint256",
          "name": "tokenId",
          "type": "uint256"
        }
      ],
      "name": "Approval",
      "type": "event"
    },
    {
      "anonymous": false,
      "inputs": [
        {
          "indexed": true,
          "internalType": "address",
          "name": "owner",
          "type": "address"
        },
        {
          "indexed": true,
          "internalType": "address",
          "name": "operator",
          "type": "address"
        },
        {
          "indexed": false,
          "internalType": "bool",
          "name": "approved",
          "type": "bool"
        }
      ],
      "name": "ApprovalForAll",
      "type": "event"
    },
    {
      "anonymous": false,
      "inputs": [
        {
          "indexed": false,
          "internalType": "address",
          "name": "_seller",
          "type": "address"
        },
        {
          "indexed": false,
          "internalType": "address",
          "name": "_buyer",
          "type": "address"
        },
        {
          "indexed": false,
          "internalType": "uint256",
          "name": "_price",
          "type": "uint256"
        }
      ],
      "name": "NftBought",
      "type": "event"
    },
    {
      "anonymous": false,
      "inputs": [
        {
          "indexed": true,
          "internalType": "address",
          "name": "from",
          "type": "address"
        },
        {
          "indexed": true,
          "internalType": "address",
          "name": "to",
          "type": "address"
        },
        {
          "indexed": true,
          "internalType": "uint256",
          "name": "tokenId",
          "type": "uint256"
        }
      ],
      "name": "Transfer",
      "type": "event"
    },
    {
      "inputs": [
        {
          "internalType": "address",
          "name": "to",
          "type": "address"
        },
        {
          "internalType": "uint256",
          "name": "tokenId",
          "type": "uint256"
        }
      ],
      "name": "approve",
      "outputs": [],
      "stateMutability": "nonpayable",
      "type": "function"
    },
    {
      "inputs": [
        {
          "internalType": "address",
          "name": "owner",
          "type": "address"
        }
      ],
      "name": "balanceOf",
      "outputs": [
        {
          "internalType": "uint256",
          "name": "",
          "type": "uint256"
        }
      ],
      "stateMutability": "view",
      "type": "function",
      "constant": true
    },
    {
      "inputs": [
        {
          "internalType": "uint256",
          "name": "",
          "type": "uint256"
        }
      ],
      "name": "colors",
      "outputs": [
        {
          "internalType": "string",
          "name": "",
          "type": "string"
        }
      ],
      "stateMutability": "view",
      "type": "function",
      "constant": true
    },
    {
      "inputs": [
        {
          "internalType": "uint256",
          "name": "tokenId",
          "type": "uint256"
        }
      ],
      "name": "getApproved",
      "outputs": [
        {
          "internalType": "address",
          "name": "",
          "type": "address"
        }
      ],
      "stateMutability": "view",
      "type": "function",
      "constant": true
    },
    {
      "inputs": [
        {
          "internalType": "address",
          "name": "owner",
          "type": "address"
        },
        {
          "internalType": "address",
          "name": "operator",
          "type": "address"
        }
      ],
      "name": "isApprovedForAll",
      "outputs": [
        {
          "internalType": "bool",
          "name": "",
          "type": "bool"
        }
      ],
      "stateMutability": "view",
      "type": "function",
      "constant": true
    },
    {
      "inputs": [],
      "name": "name",
      "outputs": [
        {
          "internalType": "string",
          "name": "",
          "type": "string"
        }
      ],
      "stateMutability": "view",
      "type": "function",
      "constant": true
    },
    {
      "inputs": [
        {
          "internalType": "uint256",
          "name": "tokenId",
          "type": "uint256"
        }
      ],
      "name": "ownerOf",
      "outputs": [
        {
          "internalType": "address",
          "name": "",
          "type": "address"
        }
      ],
      "stateMutability": "view",
      "type": "function",
      "constant": true
    },
    {
      "inputs": [
        {
          "internalType": "address",
          "name": "from",
          "type": "address"
        },
        {
          "internalType": "address",
          "name": "to",
          "type": "address"
        },
        {
          "internalType": "uint256",
          "name": "tokenId",
          "type": "uint256"
        }
      ],
      "name": "safeTransferFrom",
      "outputs": [],
      "stateMutability": "nonpayable",
      "type": "function"
    },
    {
      "inputs": [
        {
          "internalType": "address",
          "name": "from",
          "type": "address"
        },
        {
          "internalType": "address",
          "name": "to",
          "type": "address"
        },
        {
          "internalType": "uint256",
          "name": "tokenId",
          "type": "uint256"
        },
        {
          "internalType": "bytes",
          "name": "_data",
          "type": "bytes"
        }
      ],
      "name": "safeTransferFrom",
      "outputs": [],
      "stateMutability": "nonpayable",
      "type": "function"
    },
    {
      "inputs": [
        {
          "internalType": "address",
          "name": "operator",
          "type": "address"
        },
        {
          "internalType": "bool",
          "name": "approved",
          "type": "bool"
        }
      ],
      "name": "setApprovalForAll",
      "outputs": [],
      "stateMutability": "nonpayable",
      "type": "function"
    },
    {
      "inputs": [
        {
          "internalType": "bytes4",
          "name": "interfaceId",
          "type": "bytes4"
        }
      ],
      "name": "supportsInterface",
      "outputs": [
        {
          "internalType": "bool",
          "name": "",
          "type": "bool"
        }
      ],
      "stateMutability": "view",
      "type": "function",
      "constant": true
    },
    {
      "inputs": [],
      "name": "symbol",
      "outputs": [
        {
          "internalType": "string",
          "name": "",
          "type": "string"
        }
      ],
      "stateMutability": "view",
      "type": "function",
      "constant": true
    },
    {
      "inputs": [
        {
          "internalType": "uint256",
          "name": "index",
          "type": "uint256"
        }
      ],
      "name": "tokenByIndex",
      "outputs": [
        {
          "internalType": "uint256",
          "name": "",
          "type": "uint256"
        }
      ],
      "stateMutability": "view",
      "type": "function",
      "constant": true
    },
    {
      "inputs": [
        {
          "internalType": "uint256",
          "name": "",
          "type": "uint256"
        }
      ],
      "name": "tokenIdToPrice",
      "outputs": [
        {
          "internalType": "uint256",
          "name": "",
          "type": "uint256"
        }
      ],
      "stateMutability": "view",
      "type": "function",
      "constant": true
    },
    {
      "inputs": [
        {
          "internalType": "address",
          "name": "owner",
          "type": "address"
        },
        {
          "internalType": "uint256",
          "name": "index",
          "type": "uint256"
        }
      ],
      "name": "tokenOfOwnerByIndex",
      "outputs": [
        {
          "internalType": "uint256",
          "name": "",
          "type": "uint256"
        }
      ],
      "stateMutability": "view",
      "type": "function",
      "constant": true
    },
    {
      "inputs": [
        {
          "internalType": "uint256",
          "name": "tokenId",
          "type": "uint256"
        }
      ],
      "name": "tokenURI",
      "outputs": [
        {
          "internalType": "string",
          "name": "",
          "type": "string"
        }
      ],
      "stateMutability": "view",
      "type": "function",
      "constant": true
    },
    {
      "inputs": [],
      "name": "totalSupply",
      "outputs": [
        {
          "internalType": "uint256",
          "name": "",
          "type": "uint256"
        }
      ],
      "stateMutability": "view",
      "type": "function",
      "constant": true
    },
    {
      "inputs": [
        {
          "internalType": "address",
          "name": "from",
          "type": "address"
        },
        {
          "internalType": "address",
          "name": "to",
          "type": "address"
        },
        {
          "internalType": "uint256",
          "name": "tokenId",
          "type": "uint256"
        }
      ],
      "name": "transferFrom",
      "outputs": [],
      "stateMutability": "nonpayable",
      "type": "function"
    },
    {
      "inputs": [
        {
          "internalType": "string",
          "name": "_color",
          "type": "string"
        }
      ],
      "name": "mint",
      "outputs": [],
      "stateMutability": "nonpayable",
      "type": "function"
    },
    {
      "inputs": [
        {
          "internalType": "uint256",
          "name": "_tokenId",
          "type": "uint256"
        },
        {
          "internalType": "uint256",
          "name": "_price",
          "type": "uint256"
        }
      ],
      "name": "allowBuy",
      "outputs": [],
      "stateMutability": "nonpayable",
      "type": "function"
    },
    {
      "inputs": [
        {
          "internalType": "uint256",
          "name": "_tokenId",
          "type": "uint256"
        }
      ],
      "name": "disallowBuy",
      "outputs": [],
      "stateMutability": "nonpayable",
      "type": "function"
    },
    {
      "inputs": [
        {
          "internalType": "uint256",
          "name": "_tokenId",
          "type": "uint256"
        }
      ],
      "name": "buy",
      "outputs": [],
      "stateMutability": "payable",
      "type": "function",
      "payable": true
    }
  ],
  "bytecode": "0x60806040523480156200001157600080fd5b506040518060400160405280600581526020017f436f6c6f720000000000000000000000000000000000000000000000000000008152506040518060400160405280600681526020017f434f4c4f52530000000000000000000000000000000000000000000000000000815250816000908051906020019062000096929190620000b8565b508060019080519060200190620000af929190620000b8565b505050620001cd565b828054620000c69062000168565b90600052602060002090601f016020900481019282620000ea576000855562000136565b82601f106200010557805160ff191683800117855562000136565b8280016001018555821562000136579182015b828111156200013557825182559160200191906001019062000118565b5b50905062000145919062000149565b5090565b5b80821115620001645760008160009055506001016200014a565b5090565b600060028204905060018216806200018157607f821691505b602082108114156200019857620001976200019e565b5b50919050565b7f4e487b7100000000000000000000000000000000000000000000000000000000600052602260045260246000fd5b61384d80620001dd6000396000f3fe6080604052600436106101355760003560e01c806395d89b41116100ab578063c87b56dd1161006f578063c87b56dd1461045c578063d499131214610499578063d85d3d27146104c2578063d96a094a146104eb578063e985e9c514610507578063f4812eb91461054457610135565b806395d89b4114610379578063a22cb465146103a4578063b88d4fde146103cd578063bbb5e8d3146103f6578063bd11f69d1461041f57610135565b806323b872dd116100fd57806323b872dd146102335780632f745c591461025c57806342842e0e146102995780634f6ccce7146102c25780636352211e146102ff57806370a082311461033c57610135565b806301ffc9a71461013a57806306fdde0314610177578063081812fc146101a2578063095ea7b3146101df57806318160ddd14610208575b600080fd5b34801561014657600080fd5b50610161600480360381019061015c91906125f5565b610581565b60405161016e9190612b6a565b60405180910390f35b34801561018357600080fd5b5061018c6105fb565b6040516101999190612b85565b60405180910390f35b3480156101ae57600080fd5b506101c960048036038101906101c49190612698565b61068d565b6040516101d69190612acc565b60405180910390f35b3480156101eb57600080fd5b50610206600480360381019061020191906125b5565b610712565b005b34801561021457600080fd5b5061021d61082a565b60405161022a9190612e27565b60405180910390f35b34801561023f57600080fd5b5061025a6004803603810190610255919061249f565b610837565b005b34801561026857600080fd5b50610283600480360381019061027e91906125b5565b610897565b6040516102909190612e27565b60405180910390f35b3480156102a557600080fd5b506102c060048036038101906102bb919061249f565b61093c565b005b3480156102ce57600080fd5b506102e960048036038101906102e49190612698565b61095c565b6040516102f69190612e27565b60405180910390f35b34801561030b57600080fd5b5061032660048036038101906103219190612698565b6109cd565b6040516103339190612acc565b60405180910390f35b34801561034857600080fd5b50610363600480360381019061035e9190612432565b610a7f565b6040516103709190612e27565b60405180910390f35b34801561038557600080fd5b5061038e610b37565b60405161039b9190612b85565b60405180910390f35b3480156103b057600080fd5b506103cb60048036038101906103c69190612575565b610bc9565b005b3480156103d957600080fd5b506103f460048036038101906103ef91906124f2565b610d4a565b005b34801561040257600080fd5b5061041d600480360381019061041891906126c5565b610dac565b005b34801561042b57600080fd5b5061044660048036038101906104419190612698565b610e81565b6040516104539190612b85565b60405180910390f35b34801561046857600080fd5b50610483600480360381019061047e9190612698565b610f2d565b6040516104909190612b85565b60405180910390f35b3480156104a557600080fd5b506104c060048036038101906104bb9190612698565b610fd4565b005b3480156104ce57600080fd5b506104e960048036038101906104e4919061264f565b611066565b005b61050560048036038101906105009190612698565b611127565b005b34801561051357600080fd5b5061052e6004803603810190610529919061245f565b61127c565b60405161053b9190612b6a565b60405180910390f35b34801561055057600080fd5b5061056b60048036038101906105669190612698565b611310565b6040516105789190612e27565b60405180910390f35b60007f780e9d63000000000000000000000000000000000000000000000000000000007bffffffffffffffffffffffffffffffffffffffffffffffffffffffff1916827bffffffffffffffffffffffffffffffffffffffffffffffffffffffff191614806105f457506105f382611328565b5b9050919050565b60606000805461060a9061307d565b80601f01602080910402602001604051908101604052809291908181526020018280546106369061307d565b80156106835780601f1061065857610100808354040283529160200191610683565b820191906000526020600020905b81548152906001019060200180831161066657829003601f168201915b5050505050905090565b60006106988261140a565b6106d7576040517f08c379a00000000000000000000000000000000000000000000000000000000081526004016106ce90612d07565b60405180910390fd5b6004600083815260200190815260200160002060009054906101000a900473ffffffffffffffffffffffffffffffffffffffff169050919050565b600061071d826109cd565b90508073ffffffffffffffffffffffffffffffffffffffff168373ffffffffffffffffffffffffffffffffffffffff16141561078e576040517f08c379a000000000000000000000000000000000000000000000000000000000815260040161078590612da7565b60405180910390fd5b8073ffffffffffffffffffffffffffffffffffffffff166107ad611476565b73ffffffffffffffffffffffffffffffffffffffff1614806107dc57506107db816107d6611476565b61127c565b5b61081b576040517f08c379a000000000000000000000000000000000000000000000000000000000815260040161081290612c87565b60405180910390fd5b610825838361147e565b505050565b6000600880549050905090565b610848610842611476565b82611537565b610887576040517f08c379a000000000000000000000000000000000000000000000000000000000815260040161087e90612de7565b60405180910390fd5b610892838383611615565b505050565b60006108a283610a7f565b82106108e3576040517f08c379a00000000000000000000000000000000000000000000000000000000081526004016108da90612ba7565b60405180910390fd5b600660008473ffffffffffffffffffffffffffffffffffffffff1673ffffffffffffffffffffffffffffffffffffffff168152602001908152602001600020600083815260200190815260200160002054905092915050565b61095783838360405180602001604052806000815250610d4a565b505050565b600061096661082a565b82106109a7576040517f08c379a000000000000000000000000000000000000000000000000000000000815260040161099e90612e07565b60405180910390fd5b600882815481106109bb576109ba613216565b5b90600052602060002001549050919050565b6000806002600084815260200190815260200160002060009054906101000a900473ffffffffffffffffffffffffffffffffffffffff169050600073ffffffffffffffffffffffffffffffffffffffff168173ffffffffffffffffffffffffffffffffffffffff161415610a76576040517f08c379a0000000000000000000000000000000000000000000000000000000008152600401610a6d90612cc7565b60405180910390fd5b80915050919050565b60008073ffffffffffffffffffffffffffffffffffffffff168273ffffffffffffffffffffffffffffffffffffffff161415610af0576040517f08c379a0000000000000000000000000000000000000000000000000000000008152600401610ae790612ca7565b60405180910390fd5b600360008373ffffffffffffffffffffffffffffffffffffffff1673ffffffffffffffffffffffffffffffffffffffff168152602001908152602001600020549050919050565b606060018054610b469061307d565b80601f0160208091040260200160405190810160405280929190818152602001828054610b729061307d565b8015610bbf5780601f10610b9457610100808354040283529160200191610bbf565b820191906000526020600020905b815481529060010190602001808311610ba257829003601f168201915b5050505050905090565b610bd1611476565b73ffffffffffffffffffffffffffffffffffffffff168273ffffffffffffffffffffffffffffffffffffffff161415610c3f576040517f08c379a0000000000000000000000000000000000000000000000000000000008152600401610c3690612c47565b60405180910390fd5b8060056000610c4c611476565b73ffffffffffffffffffffffffffffffffffffffff1673ffffffffffffffffffffffffffffffffffffffff16815260200190815260200160002060008473ffffffffffffffffffffffffffffffffffffffff1673ffffffffffffffffffffffffffffffffffffffff16815260200190815260200160002060006101000a81548160ff0219169083151502179055508173ffffffffffffffffffffffffffffffffffffffff16610cf9611476565b73ffffffffffffffffffffffffffffffffffffffff167f17307eab39ab6107e8899845ad3d59bd9653f200f220920489ca2b5937696c3183604051610d3e9190612b6a565b60405180910390a35050565b610d5b610d55611476565b83611537565b610d9a576040517f08c379a0000000000000000000000000000000000000000000000000000000008152600401610d9190612de7565b60405180910390fd5b610da684848484611871565b50505050565b610db5826109cd565b73ffffffffffffffffffffffffffffffffffffffff163373ffffffffffffffffffffffffffffffffffffffff1614610e22576040517f08c379a0000000000000000000000000000000000000000000000000000000008152600401610e1990612dc7565b60405180910390fd5b60008111610e65576040517f08c379a0000000000000000000000000000000000000000000000000000000008152600401610e5c90612d67565b60405180910390fd5b80600c6000848152602001908152602001600020819055505050565b600a8181548110610e9157600080fd5b906000526020600020016000915090508054610eac9061307d565b80601f0160208091040260200160405190810160405280929190818152602001828054610ed89061307d565b8015610f255780601f10610efa57610100808354040283529160200191610f25565b820191906000526020600020905b815481529060010190602001808311610f0857829003601f168201915b505050505081565b6060610f388261140a565b610f77576040517f08c379a0000000000000000000000000000000000000000000000000000000008152600401610f6e90612d87565b60405180910390fd5b6000610f816118cd565b90506000815111610fa15760405180602001604052806000815250610fcc565b80610fab846118e4565b604051602001610fbc929190612aa8565b6040516020818303038152906040525b915050919050565b610fdd816109cd565b73ffffffffffffffffffffffffffffffffffffffff163373ffffffffffffffffffffffffffffffffffffffff161461104a576040517f08c379a000000000000000000000000000000000000000000000000000000000815260040161104190612dc7565b60405180910390fd5b6000600c60008381526020019081526020016000208190555050565b600b816040516110769190612a91565b908152602001604051809103902060009054906101000a900460ff161561109c57600080fd5b600a819080600181540180825580915050600190039060005260206000200160009091909190915090805190602001906110d7929190612246565b506000600a8054905090506110ec3382611a45565b6001600b836040516110fe9190612a91565b908152602001604051809103902060006101000a81548160ff0219169083151502179055505050565b6000600c600083815260200190815260200160002054905060008111611182576040517f08c379a000000000000000000000000000000000000000000000000000000000815260040161117990612be7565b60405180910390fd5b8034146111c4576040517f08c379a00000000000000000000000000000000000000000000000000000000081526004016111bb90612d27565b60405180910390fd5b60006111cf836109cd565b90506111dc813385611615565b6000600c6000858152602001908152602001600020819055508073ffffffffffffffffffffffffffffffffffffffff166108fc349081150290604051600060405180830381858888f1935050505015801561123b573d6000803e3d6000fd5b507f608f6ac9327c2bf4d3c77adf447d2c448ba7b0971e0aaa9aa03f7ac29d874a4481333460405161126f93929190612ae7565b60405180910390a1505050565b6000600560008473ffffffffffffffffffffffffffffffffffffffff1673ffffffffffffffffffffffffffffffffffffffff16815260200190815260200160002060008373ffffffffffffffffffffffffffffffffffffffff1673ffffffffffffffffffffffffffffffffffffffff16815260200190815260200160002060009054906101000a900460ff16905092915050565b600c6020528060005260406000206000915090505481565b60007f80ac58cd000000000000000000000000000000000000000000000000000000007bffffffffffffffffffffffffffffffffffffffffffffffffffffffff1916827bffffffffffffffffffffffffffffffffffffffffffffffffffffffff191614806113f357507f5b5e139f000000000000000000000000000000000000000000000000000000007bffffffffffffffffffffffffffffffffffffffffffffffffffffffff1916827bffffffffffffffffffffffffffffffffffffffffffffffffffffffff1916145b80611403575061140282611c13565b5b9050919050565b60008073ffffffffffffffffffffffffffffffffffffffff166002600084815260200190815260200160002060009054906101000a900473ffffffffffffffffffffffffffffffffffffffff1673ffffffffffffffffffffffffffffffffffffffff1614159050919050565b600033905090565b816004600083815260200190815260200160002060006101000a81548173ffffffffffffffffffffffffffffffffffffffff021916908373ffffffffffffffffffffffffffffffffffffffff160217905550808273ffffffffffffffffffffffffffffffffffffffff166114f1836109cd565b73ffffffffffffffffffffffffffffffffffffffff167f8c5be1e5ebec7d5bd14f71427d1e84f3dd0314c0f7b2291e5b200ac8c7c3b92560405160405180910390a45050565b60006115428261140a565b611581576040517f08c379a000000000000000000000000000000000000000000000000000000000815260040161157890612c67565b60405180910390fd5b600061158c836109cd565b90508073ffffffffffffffffffffffffffffffffffffffff168473ffffffffffffffffffffffffffffffffffffffff1614806115fb57508373ffffffffffffffffffffffffffffffffffffffff166115e38461068d565b73ffffffffffffffffffffffffffffffffffffffff16145b8061160c575061160b818561127c565b5b91505092915050565b8273ffffffffffffffffffffffffffffffffffffffff16611635826109cd565b73ffffffffffffffffffffffffffffffffffffffff161461168b576040517f08c379a000000000000000000000000000000000000000000000000000000000815260040161168290612d47565b60405180910390fd5b600073ffffffffffffffffffffffffffffffffffffffff168273ffffffffffffffffffffffffffffffffffffffff1614156116fb576040517f08c379a00000000000000000000000000000000000000000000000000000000081526004016116f290612c27565b60405180910390fd5b611706838383611c7d565b61171160008261147e565b6001600360008573ffffffffffffffffffffffffffffffffffffffff1673ffffffffffffffffffffffffffffffffffffffff16815260200190815260200160002060008282546117619190612f93565b925050819055506001600360008473ffffffffffffffffffffffffffffffffffffffff1673ffffffffffffffffffffffffffffffffffffffff16815260200190815260200160002060008282546117b89190612f0c565b92505081905550816002600083815260200190815260200160002060006101000a81548173ffffffffffffffffffffffffffffffffffffffff021916908373ffffffffffffffffffffffffffffffffffffffff160217905550808273ffffffffffffffffffffffffffffffffffffffff168473ffffffffffffffffffffffffffffffffffffffff167fddf252ad1be2c89b69c2b068fc378daa952ba7f163c4a11628f55a4df523b3ef60405160405180910390a4505050565b61187c848484611615565b61188884848484611d91565b6118c7576040517f08c379a00000000000000000000000000000000000000000000000000000000081526004016118be90612bc7565b60405180910390fd5b50505050565b606060405180602001604052806000815250905090565b6060600082141561192c576040518060400160405280600181526020017f30000000000000000000000000000000000000000000000000000000000000008152509050611a40565b600082905060005b6000821461195e578080611947906130e0565b915050600a826119579190612f62565b9150611934565b60008167ffffffffffffffff81111561197a57611979613245565b5b6040519080825280601f01601f1916602001820160405280156119ac5781602001600182028036833780820191505090505b5090505b60008514611a39576001826119c59190612f93565b9150600a856119d49190613129565b60306119e09190612f0c565b60f81b8183815181106119f6576119f5613216565b5b60200101907effffffffffffffffffffffffffffffffffffffffffffffffffffffffffffff1916908160001a905350600a85611a329190612f62565b94506119b0565b8093505050505b919050565b600073ffffffffffffffffffffffffffffffffffffffff168273ffffffffffffffffffffffffffffffffffffffff161415611ab5576040517f08c379a0000000000000000000000000000000000000000000000000000000008152600401611aac90612ce7565b60405180910390fd5b611abe8161140a565b15611afe576040517f08c379a0000000000000000000000000000000000000000000000000000000008152600401611af590612c07565b60405180910390fd5b611b0a60008383611c7d565b6001600360008473ffffffffffffffffffffffffffffffffffffffff1673ffffffffffffffffffffffffffffffffffffffff1681526020019081526020016000206000828254611b5a9190612f0c565b92505081905550816002600083815260200190815260200160002060006101000a81548173ffffffffffffffffffffffffffffffffffffffff021916908373ffffffffffffffffffffffffffffffffffffffff160217905550808273ffffffffffffffffffffffffffffffffffffffff16600073ffffffffffffffffffffffffffffffffffffffff167fddf252ad1be2c89b69c2b068fc378daa952ba7f163c4a11628f55a4df523b3ef60405160405180910390a45050565b60007f01ffc9a7000000000000000000000000000000000000000000000000000000007bffffffffffffffffffffffffffffffffffffffffffffffffffffffff1916827bffffffffffffffffffffffffffffffffffffffffffffffffffffffff1916149050919050565b611c88838383611f28565b600073ffffffffffffffffffffffffffffffffffffffff168373ffffffffffffffffffffffffffffffffffffffff161415611ccb57611cc681611f2d565b611d0a565b8173ffffffffffffffffffffffffffffffffffffffff168373ffffffffffffffffffffffffffffffffffffffff1614611d0957611d088382611f76565b5b5b600073ffffffffffffffffffffffffffffffffffffffff168273ffffffffffffffffffffffffffffffffffffffff161415611d4d57611d48816120e3565b611d8c565b8273ffffffffffffffffffffffffffffffffffffffff168273ffffffffffffffffffffffffffffffffffffffff1614611d8b57611d8a82826121b4565b5b5b505050565b6000611db28473ffffffffffffffffffffffffffffffffffffffff16612233565b15611f1b578373ffffffffffffffffffffffffffffffffffffffff1663150b7a02611ddb611476565b8786866040518563ffffffff1660e01b8152600401611dfd9493929190612b1e565b602060405180830381600087803b158015611e1757600080fd5b505af1925050508015611e4857506040513d601f19601f82011682018060405250810190611e459190612622565b60015b611ecb573d8060008114611e78576040519150601f19603f3d011682016040523d82523d6000602084013e611e7d565b606091505b50600081511415611ec3576040517f08c379a0000000000000000000000000000000000000000000000000000000008152600401611eba90612bc7565b60405180910390fd5b805181602001fd5b63150b7a0260e01b7bffffffffffffffffffffffffffffffffffffffffffffffffffffffff1916817bffffffffffffffffffffffffffffffffffffffffffffffffffffffff191614915050611f20565b600190505b949350505050565b505050565b6008805490506009600083815260200190815260200160002081905550600881908060018154018082558091505060019003906000526020600020016000909190919091505550565b60006001611f8384610a7f565b611f8d9190612f93565b9050600060076000848152602001908152602001600020549050818114612072576000600660008673ffffffffffffffffffffffffffffffffffffffff1673ffffffffffffffffffffffffffffffffffffffff168152602001908152602001600020600084815260200190815260200160002054905080600660008773ffffffffffffffffffffffffffffffffffffffff1673ffffffffffffffffffffffffffffffffffffffff168152602001908152602001600020600084815260200190815260200160002081905550816007600083815260200190815260200160002081905550505b6007600084815260200190815260200160002060009055600660008573ffffffffffffffffffffffffffffffffffffffff1673ffffffffffffffffffffffffffffffffffffffff16815260200190815260200160002060008381526020019081526020016000206000905550505050565b600060016008805490506120f79190612f93565b905060006009600084815260200190815260200160002054905060006008838154811061212757612126613216565b5b90600052602060002001549050806008838154811061214957612148613216565b5b906000526020600020018190555081600960008381526020019081526020016000208190555060096000858152602001908152602001600020600090556008805480612198576121976131e7565b5b6001900381819060005260206000200160009055905550505050565b60006121bf83610a7f565b905081600660008573ffffffffffffffffffffffffffffffffffffffff1673ffffffffffffffffffffffffffffffffffffffff168152602001908152602001600020600083815260200190815260200160002081905550806007600084815260200190815260200160002081905550505050565b600080823b905060008111915050919050565b8280546122529061307d565b90600052602060002090601f01602090048101928261227457600085556122bb565b82601f1061228d57805160ff19168380011785556122bb565b828001600101855582156122bb579182015b828111156122ba57825182559160200191906001019061229f565b5b5090506122c891906122cc565b5090565b5b808211156122e55760008160009055506001016122cd565b5090565b60006122fc6122f784612e67565b612e42565b90508281526020810184848401111561231857612317613279565b5b61232384828561303b565b509392505050565b600061233e61233984612e98565b612e42565b90508281526020810184848401111561235a57612359613279565b5b61236584828561303b565b509392505050565b60008135905061237c816137bb565b92915050565b600081359050612391816137d2565b92915050565b6000813590506123a6816137e9565b92915050565b6000815190506123bb816137e9565b92915050565b600082601f8301126123d6576123d5613274565b5b81356123e68482602086016122e9565b91505092915050565b600082601f83011261240457612403613274565b5b813561241484826020860161232b565b91505092915050565b60008135905061242c81613800565b92915050565b60006020828403121561244857612447613283565b5b60006124568482850161236d565b91505092915050565b6000806040838503121561247657612475613283565b5b60006124848582860161236d565b92505060206124958582860161236d565b9150509250929050565b6000806000606084860312156124b8576124b7613283565b5b60006124c68682870161236d565b93505060206124d78682870161236d565b92505060406124e88682870161241d565b9150509250925092565b6000806000806080858703121561250c5761250b613283565b5b600061251a8782880161236d565b945050602061252b8782880161236d565b935050604061253c8782880161241d565b925050606085013567ffffffffffffffff81111561255d5761255c61327e565b5b612569878288016123c1565b91505092959194509250565b6000806040838503121561258c5761258b613283565b5b600061259a8582860161236d565b92505060206125ab85828601612382565b9150509250929050565b600080604083850312156125cc576125cb613283565b5b60006125da8582860161236d565b92505060206125eb8582860161241d565b9150509250929050565b60006020828403121561260b5761260a613283565b5b600061261984828501612397565b91505092915050565b60006020828403121561263857612637613283565b5b6000612646848285016123ac565b91505092915050565b60006020828403121561266557612664613283565b5b600082013567ffffffffffffffff8111156126835761268261327e565b5b61268f848285016123ef565b91505092915050565b6000602082840312156126ae576126ad613283565b5b60006126bc8482850161241d565b91505092915050565b600080604083850312156126dc576126db613283565b5b60006126ea8582860161241d565b92505060206126fb8582860161241d565b9150509250929050565b61270e81612fc7565b82525050565b61271d81612fd9565b82525050565b600061272e82612ec9565b6127388185612edf565b935061274881856020860161304a565b61275181613288565b840191505092915050565b600061276782612ed4565b6127718185612ef0565b935061278181856020860161304a565b61278a81613288565b840191505092915050565b60006127a082612ed4565b6127aa8185612f01565b93506127ba81856020860161304a565b80840191505092915050565b60006127d3602b83612ef0565b91506127de82613299565b604082019050919050565b60006127f6603283612ef0565b9150612801826132e8565b604082019050919050565b6000612819601a83612ef0565b915061282482613337565b602082019050919050565b600061283c601c83612ef0565b915061284782613360565b602082019050919050565b600061285f602483612ef0565b915061286a82613389565b604082019050919050565b6000612882601983612ef0565b915061288d826133d8565b602082019050919050565b60006128a5602c83612ef0565b91506128b082613401565b604082019050919050565b60006128c8603883612ef0565b91506128d382613450565b604082019050919050565b60006128eb602a83612ef0565b91506128f68261349f565b604082019050919050565b600061290e602983612ef0565b9150612919826134ee565b604082019050919050565b6000612931602083612ef0565b915061293c8261353d565b602082019050919050565b6000612954602c83612ef0565b915061295f82613566565b604082019050919050565b6000612977600f83612ef0565b9150612982826135b5565b602082019050919050565b600061299a602983612ef0565b91506129a5826135de565b604082019050919050565b60006129bd600a83612ef0565b91506129c88261362d565b602082019050919050565b60006129e0602f83612ef0565b91506129eb82613656565b604082019050919050565b6000612a03602183612ef0565b9150612a0e826136a5565b604082019050919050565b6000612a26601783612ef0565b9150612a31826136f4565b602082019050919050565b6000612a49603183612ef0565b9150612a548261371d565b604082019050919050565b6000612a6c602c83612ef0565b9150612a778261376c565b604082019050919050565b612a8b81613031565b82525050565b6000612a9d8284612795565b915081905092915050565b6000612ab48285612795565b9150612ac08284612795565b91508190509392505050565b6000602082019050612ae16000830184612705565b92915050565b6000606082019050612afc6000830186612705565b612b096020830185612705565b612b166040830184612a82565b949350505050565b6000608082019050612b336000830187612705565b612b406020830186612705565b612b4d6040830185612a82565b8181036060830152612b5f8184612723565b905095945050505050565b6000602082019050612b7f6000830184612714565b92915050565b60006020820190508181036000830152612b9f818461275c565b905092915050565b60006020820190508181036000830152612bc0816127c6565b9050919050565b60006020820190508181036000830152612be0816127e9565b9050919050565b60006020820190508181036000830152612c008161280c565b9050919050565b60006020820190508181036000830152612c208161282f565b9050919050565b60006020820190508181036000830152612c4081612852565b9050919050565b60006020820190508181036000830152612c6081612875565b9050919050565b60006020820190508181036000830152612c8081612898565b9050919050565b60006020820190508181036000830152612ca0816128bb565b9050919050565b60006020820190508181036000830152612cc0816128de565b9050919050565b60006020820190508181036000830152612ce081612901565b9050919050565b60006020820190508181036000830152612d0081612924565b9050919050565b60006020820190508181036000830152612d2081612947565b9050919050565b60006020820190508181036000830152612d408161296a565b9050919050565b60006020820190508181036000830152612d608161298d565b9050919050565b60006020820190508181036000830152612d80816129b0565b9050919050565b60006020820190508181036000830152612da0816129d3565b9050919050565b60006020820190508181036000830152612dc0816129f6565b9050919050565b60006020820190508181036000830152612de081612a19565b9050919050565b60006020820190508181036000830152612e0081612a3c565b9050919050565b60006020820190508181036000830152612e2081612a5f565b9050919050565b6000602082019050612e3c6000830184612a82565b92915050565b6000612e4c612e5d565b9050612e5882826130af565b919050565b6000604051905090565b600067ffffffffffffffff821115612e8257612e81613245565b5b612e8b82613288565b9050602081019050919050565b600067ffffffffffffffff821115612eb357612eb2613245565b5b612ebc82613288565b9050602081019050919050565b600081519050919050565b600081519050919050565b600082825260208201905092915050565b600082825260208201905092915050565b600081905092915050565b6000612f1782613031565b9150612f2283613031565b9250827fffffffffffffffffffffffffffffffffffffffffffffffffffffffffffffffff03821115612f5757612f5661315a565b5b828201905092915050565b6000612f6d82613031565b9150612f7883613031565b925082612f8857612f87613189565b5b828204905092915050565b6000612f9e82613031565b9150612fa983613031565b925082821015612fbc57612fbb61315a565b5b828203905092915050565b6000612fd282613011565b9050919050565b60008115159050919050565b60007fffffffff0000000000000000000000000000000000000000000000000000000082169050919050565b600073ffffffffffffffffffffffffffffffffffffffff82169050919050565b6000819050919050565b82818337600083830152505050565b60005b8381101561306857808201518184015260208101905061304d565b83811115613077576000848401525b50505050565b6000600282049050600182168061309557607f821691505b602082108114156130a9576130a86131b8565b5b50919050565b6130b882613288565b810181811067ffffffffffffffff821117156130d7576130d6613245565b5b80604052505050565b60006130eb82613031565b91507fffffffffffffffffffffffffffffffffffffffffffffffffffffffffffffffff82141561311e5761311d61315a565b5b600182019050919050565b600061313482613031565b915061313f83613031565b92508261314f5761314e613189565b5b828206905092915050565b7f4e487b7100000000000000000000000000000000000000000000000000000000600052601160045260246000fd5b7f4e487b7100000000000000000000000000000000000000000000000000000000600052601260045260246000fd5b7f4e487b7100000000000000000000000000000000000000000000000000000000600052602260045260246000fd5b7f4e487b7100000000000000000000000000000000000000000000000000000000600052603160045260246000fd5b7f4e487b7100000000000000000000000000000000000000000000000000000000600052603260045260246000fd5b7f4e487b7100000000000000000000000000000000000000000000000000000000600052604160045260246000fd5b600080fd5b600080fd5b600080fd5b600080fd5b6000601f19601f8301169050919050565b7f455243373231456e756d657261626c653a206f776e657220696e646578206f7560008201527f74206f6620626f756e6473000000000000000000000000000000000000000000602082015250565b7f4552433732313a207472616e7366657220746f206e6f6e20455243373231526560008201527f63656976657220696d706c656d656e7465720000000000000000000000000000602082015250565b7f5468697320746f6b656e206973206e6f7420666f722073616c65000000000000600082015250565b7f4552433732313a20746f6b656e20616c7265616479206d696e74656400000000600082015250565b7f4552433732313a207472616e7366657220746f20746865207a65726f2061646460008201527f7265737300000000000000000000000000000000000000000000000000000000602082015250565b7f4552433732313a20617070726f766520746f2063616c6c657200000000000000600082015250565b7f4552433732313a206f70657261746f7220717565727920666f72206e6f6e657860008201527f697374656e7420746f6b656e0000000000000000000000000000000000000000602082015250565b7f4552433732313a20617070726f76652063616c6c6572206973206e6f74206f7760008201527f6e6572206e6f7220617070726f76656420666f7220616c6c0000000000000000602082015250565b7f4552433732313a2062616c616e636520717565727920666f7220746865207a6560008201527f726f206164647265737300000000000000000000000000000000000000000000602082015250565b7f4552433732313a206f776e657220717565727920666f72206e6f6e657869737460008201527f656e7420746f6b656e0000000000000000000000000000000000000000000000602082015250565b7f4552433732313a206d696e7420746f20746865207a65726f2061646472657373600082015250565b7f4552433732313a20617070726f76656420717565727920666f72206e6f6e657860008201527f697374656e7420746f6b656e0000000000000000000000000000000000000000602082015250565b7f496e636f72726563742076616c75650000000000000000000000000000000000600082015250565b7f4552433732313a207472616e73666572206f6620746f6b656e2074686174206960008201527f73206e6f74206f776e0000000000000000000000000000000000000000000000602082015250565b7f5072696365207a65726f00000000000000000000000000000000000000000000600082015250565b7f4552433732314d657461646174613a2055524920717565727920666f72206e6f60008201527f6e6578697374656e7420746f6b656e0000000000000000000000000000000000602082015250565b7f4552433732313a20617070726f76616c20746f2063757272656e74206f776e6560008201527f7200000000000000000000000000000000000000000000000000000000000000602082015250565b7f4e6f74206f776e6572206f66207468697320746f6b656e000000000000000000600082015250565b7f4552433732313a207472616e736665722063616c6c6572206973206e6f74206f60008201527f776e6572206e6f7220617070726f766564000000000000000000000000000000602082015250565b7f455243373231456e756d657261626c653a20676c6f62616c20696e646578206f60008201527f7574206f6620626f756e64730000000000000000000000000000000000000000602082015250565b6137c481612fc7565b81146137cf57600080fd5b50565b6137db81612fd9565b81146137e657600080fd5b50565b6137f281612fe5565b81146137fd57600080fd5b50565b61380981613031565b811461381457600080fd5b5056fea26469706673582212202f546200597c62399d8c780d95c0aa52f1edc1300e87869595a87d847cc4fb4264736f6c63430008060033",
  "immutableReferences": {},
  "source": "// SPDX-License-Identifier: MIT\n\npragma solidity ^0.8.0;\n\nimport \"@openzeppelin/contracts/token/ERC721/ERC721.sol\";\nimport \"@openzeppelin/contracts/token/ERC721/extensions/ERC721Enumerable.sol\";\n//import \"@openzeppelin/contracts/token/ERC721/extensions/ERC721URIStorage.sol\";\nimport \"@openzeppelin/contracts/token/ERC20/IERC20.sol\";\n\ncontract Color is ERC721Enumerable{\n\n  event NftBought(address _seller, address _buyer, uint256 _price);\n\n  string[] public colors;\n  mapping(string => bool) _colorExists;\n  mapping (uint256 => uint256) public tokenIdToPrice;\n\n  constructor () ERC721(\"Color\", \"COLORS\") {}\n\n  function mint(string memory _color) public{\n    //TODO: restrict ownership to a admin\n    require(!_colorExists[_color]);\n    colors.push(_color);\n    uint _id = colors.length;\n    _mint(msg.sender, _id);\n    _colorExists[_color] = true;\n    //_setTokenURI(newItemId, tokenURI);\n  }\n\n  function allowBuy(uint256 _tokenId, uint256 _price) external {\n        require(msg.sender == ownerOf(_tokenId), 'Not owner of this token');\n        require(_price > 0, 'Price zero');\n        tokenIdToPrice[_tokenId] = _price;\n    }\n\n    function disallowBuy(uint256 _tokenId) external {\n        require(msg.sender == ownerOf(_tokenId), 'Not owner of this token');\n        tokenIdToPrice[_tokenId] = 0;\n    }\n    \n    function buy(uint256 _tokenId) external payable {\n        uint256 price = tokenIdToPrice[_tokenId];\n        require(price > 0, 'This token is not for sale');\n        require(msg.value == price, 'Incorrect value');\n        \n        address seller = ownerOf(_tokenId);\n        _transfer(seller, msg.sender, _tokenId);\n        tokenIdToPrice[_tokenId] = 0; // not for sale anymore\n        payable(seller).transfer(msg.value); // send the ETH to the seller\n\n        emit NftBought(seller, msg.sender, msg.value);\n    }\n}",
  "sourcePath": "/home/bravo/Documents/GitHub/NFT-Marketplace/src/contracts/Color.sol",
  "compiler": {
    "name": "solc",
    "version": "0.8.6+commit.11564f7e.Emscripten.clang"
  },
  "schemaVersion": "3.4.1",
  "updatedAt": "2021-07-08T18:34:35.605Z",
  "networkType": "ethereum",
  "devdoc": {
    "kind": "dev",
    "methods": {
      "approve(address,uint256)": {
        "details": "See {IERC721-approve}."
      },
      "balanceOf(address)": {
        "details": "See {IERC721-balanceOf}."
      },
      "getApproved(uint256)": {
        "details": "See {IERC721-getApproved}."
      },
      "isApprovedForAll(address,address)": {
        "details": "See {IERC721-isApprovedForAll}."
      },
      "name()": {
        "details": "See {IERC721Metadata-name}."
      },
      "ownerOf(uint256)": {
        "details": "See {IERC721-ownerOf}."
      },
      "safeTransferFrom(address,address,uint256)": {
        "details": "See {IERC721-safeTransferFrom}."
      },
      "safeTransferFrom(address,address,uint256,bytes)": {
        "details": "See {IERC721-safeTransferFrom}."
      },
      "setApprovalForAll(address,bool)": {
        "details": "See {IERC721-setApprovalForAll}."
      },
      "supportsInterface(bytes4)": {
        "details": "See {IERC165-supportsInterface}."
      },
      "symbol()": {
        "details": "See {IERC721Metadata-symbol}."
      },
      "tokenByIndex(uint256)": {
        "details": "See {IERC721Enumerable-tokenByIndex}."
      },
      "tokenOfOwnerByIndex(address,uint256)": {
        "details": "See {IERC721Enumerable-tokenOfOwnerByIndex}."
      },
      "tokenURI(uint256)": {
        "details": "See {IERC721Metadata-tokenURI}."
      },
      "totalSupply()": {
        "details": "See {IERC721Enumerable-totalSupply}."
      },
      "transferFrom(address,address,uint256)": {
        "details": "See {IERC721-transferFrom}."
      }
    },
    "version": 1
  },
  "userdoc": {
    "kind": "user",
    "methods": {},
    "version": 1
  }
}