{
  "_format": "hh-sol-artifact-1",
  "contractName": "ArtToken",
  "sourceName": "contracts/ArtToken.sol",
  "abi": [
    {
      "inputs": [],
      "stateMutability": "nonpayable",
      "type": "constructor"
    },
    {
      "anonymous": false,
      "inputs": [
        {
          "indexed": true,
          "internalType": "address",
          "name": "owner",
          "type": "address"
        },
        {
          "indexed": true,
          "internalType": "address",
          "name": "approved",
          "type": "address"
        },
        {
          "indexed": true,
          "internalType": "uint256",
          "name": "tokenId",
          "type": "uint256"
        }
      ],
      "name": "Approval",
      "type": "event"
    },
    {
      "anonymous": false,
      "inputs": [
        {
          "indexed": true,
          "internalType": "address",
          "name": "owner",
          "type": "address"
        },
        {
          "indexed": true,
          "internalType": "address",
          "name": "operator",
          "type": "address"
        },
        {
          "indexed": false,
          "internalType": "bool",
          "name": "approved",
          "type": "bool"
        }
      ],
      "name": "ApprovalForAll",
      "type": "event"
    },
    {
      "anonymous": false,
      "inputs": [
        {
          "indexed": true,
          "internalType": "address",
          "name": "from",
          "type": "address"
        },
        {
          "indexed": true,
          "internalType": "address",
          "name": "to",
          "type": "address"
        },
        {
          "indexed": true,
          "internalType": "uint256",
          "name": "tokenId",
          "type": "uint256"
        }
      ],
      "name": "Transfer",
      "type": "event"
    },
    {
      "inputs": [
        {
          "internalType": "uint256",
          "name": "",
          "type": "uint256"
        }
      ],
      "name": "Items",
      "outputs": [
        {
          "internalType": "uint256",
          "name": "id",
          "type": "uint256"
        },
        {
          "internalType": "address",
          "name": "creator",
          "type": "address"
        },
        {
          "internalType": "string",
          "name": "uri",
          "type": "string"
        }
      ],
      "stateMutability": "view",
      "type": "function"
    },
    {
      "inputs": [
        {
          "internalType": "address",
          "name": "to",
          "type": "address"
        },
        {
          "internalType": "uint256",
          "name": "tokenId",
          "type": "uint256"
        }
      ],
      "name": "approve",
      "outputs": [],
      "stateMutability": "nonpayable",
      "type": "function"
    },
    {
      "inputs": [
        {
          "internalType": "address",
          "name": "owner",
          "type": "address"
        }
      ],
      "name": "balanceOf",
      "outputs": [
        {
          "internalType": "uint256",
          "name": "",
          "type": "uint256"
        }
      ],
      "stateMutability": "view",
      "type": "function"
    },
    {
      "inputs": [
        {
          "internalType": "uint256",
          "name": "tokenId",
          "type": "uint256"
        }
      ],
      "name": "getApproved",
      "outputs": [
        {
          "internalType": "address",
          "name": "",
          "type": "address"
        }
      ],
      "stateMutability": "view",
      "type": "function"
    },
    {
      "inputs": [
        {
          "internalType": "address",
          "name": "owner",
          "type": "address"
        },
        {
          "internalType": "address",
          "name": "operator",
          "type": "address"
        }
      ],
      "name": "isApprovedForAll",
      "outputs": [
        {
          "internalType": "bool",
          "name": "",
          "type": "bool"
        }
      ],
      "stateMutability": "view",
      "type": "function"
    },
    {
      "inputs": [],
      "name": "marketplace",
      "outputs": [
        {
          "internalType": "address",
          "name": "",
          "type": "address"
        }
      ],
      "stateMutability": "view",
      "type": "function"
    },
    {
      "inputs": [
        {
          "internalType": "string",
          "name": "uri",
          "type": "string"
        }
      ],
      "name": "mint",
      "outputs": [
        {
          "internalType": "uint256",
          "name": "",
          "type": "uint256"
        }
      ],
      "stateMutability": "nonpayable",
      "type": "function"
    },
    {
      "inputs": [],
      "name": "name",
      "outputs": [
        {
          "internalType": "string",
          "name": "",
          "type": "string"
        }
      ],
      "stateMutability": "view",
      "type": "function"
    },
    {
      "inputs": [
        {
          "internalType": "uint256",
          "name": "tokenId",
          "type": "uint256"
        }
      ],
      "name": "ownerOf",
      "outputs": [
        {
          "internalType": "address",
          "name": "",
          "type": "address"
        }
      ],
      "stateMutability": "view",
      "type": "function"
    },
    {
      "inputs": [
        {
          "internalType": "address",
          "name": "from",
          "type": "address"
        },
        {
          "internalType": "address",
          "name": "to",
          "type": "address"
        },
        {
          "internalType": "uint256",
          "name": "tokenId",
          "type": "uint256"
        }
      ],
      "name": "safeTransferFrom",
      "outputs": [],
      "stateMutability": "nonpayable",
      "type": "function"
    },
    {
      "inputs": [
        {
          "internalType": "address",
          "name": "from",
          "type": "address"
        },
        {
          "internalType": "address",
          "name": "to",
          "type": "address"
        },
        {
          "internalType": "uint256",
          "name": "tokenId",
          "type": "uint256"
        },
        {
          "internalType": "bytes",
          "name": "_data",
          "type": "bytes"
        }
      ],
      "name": "safeTransferFrom",
      "outputs": [],
      "stateMutability": "nonpayable",
      "type": "function"
    },
    {
      "inputs": [
        {
          "internalType": "address",
          "name": "operator",
          "type": "address"
        },
        {
          "internalType": "bool",
          "name": "approved",
          "type": "bool"
        }
      ],
      "name": "setApprovalForAll",
      "outputs": [],
      "stateMutability": "nonpayable",
      "type": "function"
    },
    {
      "inputs": [
        {
          "internalType": "address",
          "name": "market",
          "type": "address"
        }
      ],
      "name": "setMarketplace",
      "outputs": [],
      "stateMutability": "nonpayable",
      "type": "function"
    },
    {
      "inputs": [
        {
          "internalType": "bytes4",
          "name": "interfaceId",
          "type": "bytes4"
        }
      ],
      "name": "supportsInterface",
      "outputs": [
        {
          "internalType": "bool",
          "name": "",
          "type": "bool"
        }
      ],
      "stateMutability": "view",
      "type": "function"
    },
    {
      "inputs": [],
      "name": "symbol",
      "outputs": [
        {
          "internalType": "string",
          "name": "",
          "type": "string"
        }
      ],
      "stateMutability": "view",
      "type": "function"
    },
    {
      "inputs": [
        {
          "internalType": "uint256",
          "name": "index",
          "type": "uint256"
        }
      ],
      "name": "tokenByIndex",
      "outputs": [
        {
          "internalType": "uint256",
          "name": "",
          "type": "uint256"
        }
      ],
      "stateMutability": "view",
      "type": "function"
    },
    {
      "inputs": [
        {
          "internalType": "address",
          "name": "owner",
          "type": "address"
        },
        {
          "internalType": "uint256",
          "name": "index",
          "type": "uint256"
        }
      ],
      "name": "tokenOfOwnerByIndex",
      "outputs": [
        {
          "internalType": "uint256",
          "name": "",
          "type": "uint256"
        }
      ],
      "stateMutability": "view",
      "type": "function"
    },
    {
      "inputs": [
        {
          "internalType": "uint256",
          "name": "tokenId",
          "type": "uint256"
        }
      ],
      "name": "tokenURI",
      "outputs": [
        {
          "internalType": "string",
          "name": "",
          "type": "string"
        }
      ],
      "stateMutability": "view",
      "type": "function"
    },
    {
      "inputs": [],
      "name": "totalSupply",
      "outputs": [
        {
          "internalType": "uint256",
          "name": "",
          "type": "uint256"
        }
      ],
      "stateMutability": "view",
      "type": "function"
    },
    {
      "inputs": [
        {
          "internalType": "address",
          "name": "from",
          "type": "address"
        },
        {
          "internalType": "address",
          "name": "to",
          "type": "address"
        },
        {
          "internalType": "uint256",
          "name": "tokenId",
          "type": "uint256"
        }
      ],
      "name": "transferFrom",
      "outputs": [],
      "stateMutability": "nonpayable",
      "type": "function"
    }
  ],
  "bytecode": "0x60806040523480156200001157600080fd5b506040518060400160405280600881526020016720b93a2a37b5b2b760c11b815250604051806040016040528060048152602001634152544b60e01b81525081600090816200006191906200011e565b5060016200007082826200011e565b505050620001ea565b634e487b7160e01b600052604160045260246000fd5b600181811c90821680620000a457607f821691505b602082108103620000c557634e487b7160e01b600052602260045260246000fd5b50919050565b601f8211156200011957600081815260208120601f850160051c81016020861015620000f45750805b601f850160051c820191505b81811015620001155782815560010162000100565b5050505b505050565b81516001600160401b038111156200013a576200013a62000079565b62000152816200014b84546200008f565b84620000cb565b602080601f8311600181146200018a5760008415620001715750858301515b600019600386901b1c1916600185901b17855562000115565b600085815260208120601f198616915b82811015620001bb578886015182559484019460019091019084016200019a565b5085821015620001da5787850151600019600388901b60f8161c191681555b5050505050600190811b01905550565b611a3080620001fa6000396000f3fe608060405234801561001057600080fd5b506004361061012c5760003560e01c80636352211e116100ad578063abc8c7af11610071578063abc8c7af1461029f578063b88d4fde146102b2578063c87b56dd146102c5578063d85d3d27146102d8578063e985e9c5146102eb57600080fd5b80636352211e1461022e57806370a082311461024157806373ad6c2d1461025457806395d89b4114610284578063a22cb4651461028c57600080fd5b806318160ddd116100f457806318160ddd146101d057806323b872dd146101e25780632f745c59146101f557806342842e0e146102085780634f6ccce71461021b57600080fd5b806301ffc9a71461013157806306fdde0314610159578063081812fc1461016e578063095ea7b31461019957806317b47cc4146101ae575b600080fd5b61014461013f366004611427565b610327565b60405190151581526020015b60405180910390f35b610161610352565b6040516101509190611491565b61018161017c3660046114a4565b6103e4565b6040516001600160a01b039091168152602001610150565b6101ac6101a73660046114d9565b61047e565b005b6101c16101bc3660046114a4565b610593565b60405161015093929190611503565b6008545b604051908152602001610150565b6101ac6101f0366004611536565b610648565b6101d46102033660046114d9565b610679565b6101ac610216366004611536565b61070f565b6101d46102293660046114a4565b61072a565b61018161023c3660046114a4565b6107bd565b6101d461024f366004611572565b610834565b6101ac610262366004611572565b600b80546001600160a01b0319166001600160a01b0392909216919091179055565b6101616108bb565b6101ac61029a36600461158d565b6108ca565b600b54610181906001600160a01b031681565b6101ac6102c0366004611655565b61098e565b6101616102d33660046114a4565b6109c6565b6101d46102e63660046116d1565b610ae8565b6101446102f936600461171a565b6001600160a01b03918216600090815260056020908152604080832093909416825291909152205460ff1690565b60006001600160e01b0319821663780e9d6360e01b148061034c575061034c82610b93565b92915050565b6060600080546103619061174d565b80601f016020809104026020016040519081016040528092919081815260200182805461038d9061174d565b80156103da5780601f106103af576101008083540402835291602001916103da565b820191906000526020600020905b8154815290600101906020018083116103bd57829003601f168201915b5050505050905090565b6000818152600260205260408120546001600160a01b03166104625760405162461bcd60e51b815260206004820152602c60248201527f4552433732313a20617070726f76656420717565727920666f72206e6f6e657860448201526b34b9ba32b73a103a37b5b2b760a11b60648201526084015b60405180910390fd5b506000908152600460205260409020546001600160a01b031690565b6000610489826107bd565b9050806001600160a01b0316836001600160a01b0316036104f65760405162461bcd60e51b815260206004820152602160248201527f4552433732313a20617070726f76616c20746f2063757272656e74206f776e656044820152603960f91b6064820152608401610459565b336001600160a01b0382161480610512575061051281336102f9565b6105845760405162461bcd60e51b815260206004820152603860248201527f4552433732313a20617070726f76652063616c6c6572206973206e6f74206f7760448201527f6e6572206e6f7220617070726f76656420666f7220616c6c00000000000000006064820152608401610459565b61058e8383610be3565b505050565b600c6020526000908152604090208054600182015460028301805492936001600160a01b03909216926105c59061174d565b80601f01602080910402602001604051908101604052809291908181526020018280546105f19061174d565b801561063e5780601f106106135761010080835404028352916020019161063e565b820191906000526020600020905b81548152906001019060200180831161062157829003601f168201915b5050505050905083565b6106523382610c51565b61066e5760405162461bcd60e51b815260040161045990611787565b61058e838383610d48565b600061068483610834565b82106106e65760405162461bcd60e51b815260206004820152602b60248201527f455243373231456e756d657261626c653a206f776e657220696e646578206f7560448201526a74206f6620626f756e647360a81b6064820152608401610459565b506001600160a01b03919091166000908152600660209081526040808320938352929052205490565b61058e8383836040518060200160405280600081525061098e565b600061073560085490565b82106107985760405162461bcd60e51b815260206004820152602c60248201527f455243373231456e756d657261626c653a20676c6f62616c20696e646578206f60448201526b7574206f6620626f756e647360a01b6064820152608401610459565b600882815481106107ab576107ab6117d8565b90600052602060002001549050919050565b6000818152600260205260408120546001600160a01b03168061034c5760405162461bcd60e51b815260206004820152602960248201527f4552433732313a206f776e657220717565727920666f72206e6f6e657869737460448201526832b73a103a37b5b2b760b91b6064820152608401610459565b60006001600160a01b03821661089f5760405162461bcd60e51b815260206004820152602a60248201527f4552433732313a2062616c616e636520717565727920666f7220746865207a65604482015269726f206164647265737360b01b6064820152608401610459565b506001600160a01b031660009081526003602052604090205490565b6060600180546103619061174d565b336001600160a01b038316036109225760405162461bcd60e51b815260206004820152601960248201527f4552433732313a20617070726f766520746f2063616c6c6572000000000000006044820152606401610459565b3360008181526005602090815260408083206001600160a01b03871680855290835292819020805460ff191686151590811790915590519081529192917f17307eab39ab6107e8899845ad3d59bd9653f200f220920489ca2b5937696c31910160405180910390a35050565b6109983383610c51565b6109b45760405162461bcd60e51b815260040161045990611787565b6109c084848484610ef3565b50505050565b6000818152600260205260409020546060906001600160a01b0316610a475760405162461bcd60e51b815260206004820152603160248201527f45524337323155524953746f726167653a2055524920717565727920666f72206044820152703737b732bc34b9ba32b73a103a37b5b2b760791b6064820152608401610459565b6000828152600c602052604090206002018054610a639061174d565b80601f0160208091040260200160405190810160405280929190818152602001828054610a8f9061174d565b8015610adc5780601f10610ab157610100808354040283529160200191610adc565b820191906000526020600020905b815481529060010190602001808311610abf57829003601f168201915b50505050509050919050565b6000610af8600a80546001019055565b6000610b03600a5490565b9050610b0f3382610f26565b600b54610b25906001600160a01b03168261047e565b604080516060810182528281523360208083019182528284018781526000868152600c9092529390208251815590516001820180546001600160a01b0319166001600160a01b0390921691909117905591519091906002820190610b89908261183c565b5091949350505050565b60006001600160e01b031982166380ac58cd60e01b1480610bc457506001600160e01b03198216635b5e139f60e01b145b8061034c57506301ffc9a760e01b6001600160e01b031983161461034c565b600081815260046020526040902080546001600160a01b0319166001600160a01b0384169081179091558190610c18826107bd565b6001600160a01b03167f8c5be1e5ebec7d5bd14f71427d1e84f3dd0314c0f7b2291e5b200ac8c7c3b92560405160405180910390a45050565b6000818152600260205260408120546001600160a01b0316610cca5760405162461bcd60e51b815260206004820152602c60248201527f4552433732313a206f70657261746f7220717565727920666f72206e6f6e657860448201526b34b9ba32b73a103a37b5b2b760a11b6064820152608401610459565b6000610cd5836107bd565b9050806001600160a01b0316846001600160a01b03161480610d105750836001600160a01b0316610d05846103e4565b6001600160a01b0316145b80610d4057506001600160a01b0380821660009081526005602090815260408083209388168352929052205460ff165b949350505050565b826001600160a01b0316610d5b826107bd565b6001600160a01b031614610dc35760405162461bcd60e51b815260206004820152602960248201527f4552433732313a207472616e73666572206f6620746f6b656e2074686174206960448201526839903737ba1037bbb760b91b6064820152608401610459565b6001600160a01b038216610e255760405162461bcd60e51b8152602060048201526024808201527f4552433732313a207472616e7366657220746f20746865207a65726f206164646044820152637265737360e01b6064820152608401610459565b610e30838383610f44565b610e3b600082610be3565b6001600160a01b0383166000908152600360205260408120805460019290610e64908490611912565b90915550506001600160a01b0382166000908152600360205260408120805460019290610e92908490611925565b909155505060008181526002602052604080822080546001600160a01b0319166001600160a01b0386811691821790925591518493918716917fddf252ad1be2c89b69c2b068fc378daa952ba7f163c4a11628f55a4df523b3ef91a4505050565b610efe848484610d48565b610f0a84848484610ffc565b6109c05760405162461bcd60e51b815260040161045990611938565b610f408282604051806020016040528060008152506110fd565b5050565b6001600160a01b038316610f9f57610f9a81600880546000838152600960205260408120829055600182018355919091527ff3f7a9fe364faab93b216da50a3214154f22a0a2b415b23a84c8169e8b636ee30155565b610fc2565b816001600160a01b0316836001600160a01b031614610fc257610fc28382611130565b6001600160a01b038216610fd95761058e816111cd565b826001600160a01b0316826001600160a01b03161461058e5761058e828261127c565b60006001600160a01b0384163b156110f257604051630a85bd0160e11b81526001600160a01b0385169063150b7a029061104090339089908890889060040161198a565b6020604051808303816000875af192505050801561107b575060408051601f3d908101601f19168201909252611078918101906119c7565b60015b6110d8573d8080156110a9576040519150601f19603f3d011682016040523d82523d6000602084013e6110ae565b606091505b5080516000036110d05760405162461bcd60e51b815260040161045990611938565b805181602001fd5b6001600160e01b031916630a85bd0160e11b149050610d40565b506001949350505050565b61110783836112c0565b6111146000848484610ffc565b61058e5760405162461bcd60e51b815260040161045990611938565b6000600161113d84610834565b6111479190611912565b60008381526007602052604090205490915080821461119a576001600160a01b03841660009081526006602090815260408083208584528252808320548484528184208190558352600790915290208190555b5060009182526007602090815260408084208490556001600160a01b039094168352600681528383209183525290812055565b6008546000906111df90600190611912565b60008381526009602052604081205460088054939450909284908110611207576112076117d8565b906000526020600020015490508060088381548110611228576112286117d8565b6000918252602080832090910192909255828152600990915260408082208490558582528120556008805480611260576112606119e4565b6001900381819060005260206000200160009055905550505050565b600061128783610834565b6001600160a01b039093166000908152600660209081526040808320868452825280832085905593825260079052919091209190915550565b6001600160a01b0382166113165760405162461bcd60e51b815260206004820181905260248201527f4552433732313a206d696e7420746f20746865207a65726f20616464726573736044820152606401610459565b6000818152600260205260409020546001600160a01b03161561137b5760405162461bcd60e51b815260206004820152601c60248201527f4552433732313a20746f6b656e20616c7265616479206d696e746564000000006044820152606401610459565b61138760008383610f44565b6001600160a01b03821660009081526003602052604081208054600192906113b0908490611925565b909155505060008181526002602052604080822080546001600160a01b0319166001600160a01b03861690811790915590518392907fddf252ad1be2c89b69c2b068fc378daa952ba7f163c4a11628f55a4df523b3ef908290a45050565b6001600160e01b03198116811461142457600080fd5b50565b60006020828403121561143957600080fd5b81356114448161140e565b9392505050565b6000815180845260005b8181101561147157602081850181015186830182015201611455565b506000602082860101526020601f19601f83011685010191505092915050565b602081526000611444602083018461144b565b6000602082840312156114b657600080fd5b5035919050565b80356001600160a01b03811681146114d457600080fd5b919050565b600080604083850312156114ec57600080fd5b6114f5836114bd565b946020939093013593505050565b8381526001600160a01b038316602082015260606040820181905260009061152d9083018461144b565b95945050505050565b60008060006060848603121561154b57600080fd5b611554846114bd565b9250611562602085016114bd565b9150604084013590509250925092565b60006020828403121561158457600080fd5b611444826114bd565b600080604083850312156115a057600080fd5b6115a9836114bd565b9150602083013580151581146115be57600080fd5b809150509250929050565b634e487b7160e01b600052604160045260246000fd5b600067ffffffffffffffff808411156115fa576115fa6115c9565b604051601f8501601f19908116603f01168101908282118183101715611622576116226115c9565b8160405280935085815286868601111561163b57600080fd5b858560208301376000602087830101525050509392505050565b6000806000806080858703121561166b57600080fd5b611674856114bd565b9350611682602086016114bd565b925060408501359150606085013567ffffffffffffffff8111156116a557600080fd5b8501601f810187136116b657600080fd5b6116c5878235602084016115df565b91505092959194509250565b6000602082840312156116e357600080fd5b813567ffffffffffffffff8111156116fa57600080fd5b8201601f8101841361170b57600080fd5b610d40848235602084016115df565b6000806040838503121561172d57600080fd5b611736836114bd565b9150611744602084016114bd565b90509250929050565b600181811c9082168061176157607f821691505b60208210810361178157634e487b7160e01b600052602260045260246000fd5b50919050565b60208082526031908201527f4552433732313a207472616e736665722063616c6c6572206973206e6f74206f6040820152701ddb995c881b9bdc88185c1c1c9bdd9959607a1b606082015260800190565b634e487b7160e01b600052603260045260246000fd5b601f82111561058e57600081815260208120601f850160051c810160208610156118155750805b601f850160051c820191505b8181101561183457828155600101611821565b505050505050565b815167ffffffffffffffff811115611856576118566115c9565b61186a81611864845461174d565b846117ee565b602080601f83116001811461189f57600084156118875750858301515b600019600386901b1c1916600185901b178555611834565b600085815260208120601f198616915b828110156118ce578886015182559484019460019091019084016118af565b50858210156118ec5787850151600019600388901b60f8161c191681555b5050505050600190811b01905550565b634e487b7160e01b600052601160045260246000fd5b8181038181111561034c5761034c6118fc565b8082018082111561034c5761034c6118fc565b60208082526032908201527f4552433732313a207472616e7366657220746f206e6f6e20455243373231526560408201527131b2b4bb32b91034b6b83632b6b2b73a32b960711b606082015260800190565b6001600160a01b03858116825284166020820152604081018390526080606082018190526000906119bd9083018461144b565b9695505050505050565b6000602082840312156119d957600080fd5b81516114448161140e565b634e487b7160e01b600052603160045260246000fdfea2646970667358221220c1c6306d407fa510cf2bc5f05b4c83f512752cd68a389bd16e8be8982308087e64736f6c63430008140033",
  "linkReferences": {},
  "deployedLinkReferences": {}
}