{
  "contractName": "ArtMarketplace",
  "abi": [
    {
      "inputs": [
        {
          "internalType": "contract ArtToken",
          "name": "_token",
          "type": "address"
        }
      ],
      "stateMutability": "nonpayable",
      "type": "constructor"
    },
    {
      "anonymous": false,
      "inputs": [
        {
          "indexed": false,
          "internalType": "uint256",
          "name": "id",
          "type": "uint256"
        },
        {
          "indexed": false,
          "internalType": "uint256",
          "name": "tokenId",
          "type": "uint256"
        },
        {
          "indexed": false,
          "internalType": "uint256",
          "name": "price",
          "type": "uint256"
        }
      ],
      "name": "itemAddedForSale",
      "type": "event"
    },
    {
      "anonymous": false,
      "inputs": [
        {
          "indexed": false,
          "internalType": "uint256",
          "name": "id",
          "type": "uint256"
        },
        {
          "indexed": false,
          "internalType": "uint256",
          "name": "tokenId",
          "type": "uint256"
        },
        {
          "indexed": false,
          "internalType": "uint256",
          "name": "price",
          "type": "uint256"
        }
      ],
      "name": "itemEdit",
      "type": "event"
    },
    {
      "anonymous": false,
      "inputs": [
        {
          "indexed": false,
          "internalType": "uint256",
          "name": "id",
          "type": "uint256"
        },
        {
          "indexed": false,
          "internalType": "address",
          "name": "buyer",
          "type": "address"
        },
        {
          "indexed": false,
          "internalType": "uint256",
          "name": "price",
          "type": "uint256"
        }
      ],
      "name": "itemSold",
      "type": "event"
    },
    {
      "inputs": [
        {
          "internalType": "uint256",
          "name": "",
          "type": "uint256"
        }
      ],
      "name": "activeItems",
      "outputs": [
        {
          "internalType": "bool",
          "name": "",
          "type": "bool"
        }
      ],
      "stateMutability": "view",
      "type": "function",
      "constant": true
    },
    {
      "inputs": [
        {
          "internalType": "uint256",
          "name": "",
          "type": "uint256"
        }
      ],
      "name": "itemsForSale",
      "outputs": [
        {
          "internalType": "uint256",
          "name": "id",
          "type": "uint256"
        },
        {
          "internalType": "uint256",
          "name": "tokenId",
          "type": "uint256"
        },
        {
          "internalType": "address payable",
          "name": "seller",
          "type": "address"
        },
        {
          "internalType": "uint256",
          "name": "price",
          "type": "uint256"
        },
        {
          "internalType": "bool",
          "name": "isSold",
          "type": "bool"
        }
      ],
      "stateMutability": "view",
      "type": "function",
      "constant": true
    },
    {
      "inputs": [
        {
          "internalType": "uint256",
          "name": "tokenId",
          "type": "uint256"
        },
        {
          "internalType": "uint256",
          "name": "price",
          "type": "uint256"
        }
      ],
      "name": "putItemForSale",
      "outputs": [
        {
          "internalType": "uint256",
          "name": "",
          "type": "uint256"
        }
      ],
      "stateMutability": "nonpayable",
      "type": "function"
    },
    {
      "inputs": [
        {
          "internalType": "uint256",
          "name": "id",
          "type": "uint256"
        }
      ],
      "name": "buyItem",
      "outputs": [],
      "stateMutability": "payable",
      "type": "function",
      "payable": true
    },
    {
      "inputs": [],
      "name": "totalItemsForSale",
      "outputs": [
        {
          "internalType": "uint256",
          "name": "",
          "type": "uint256"
        }
      ],
      "stateMutability": "view",
      "type": "function",
      "constant": true
    }
  ],
  "bytecode": "0x60806040523480156200001157600080fd5b5060405162001304380380620013048339818101604052810190620000379190620000fc565b806000806101000a81548173ffffffffffffffffffffffffffffffffffffffff021916908373ffffffffffffffffffffffffffffffffffffffff160217905550506200012e565b600080fd5b600073ffffffffffffffffffffffffffffffffffffffff82169050919050565b6000620000b08262000083565b9050919050565b6000620000c482620000a3565b9050919050565b620000d681620000b7565b8114620000e257600080fd5b50565b600081519050620000f681620000cb565b92915050565b6000602082840312156200011557620001146200007e565b5b60006200012584828501620000e5565b91505092915050565b6111c6806200013e6000396000f3fe60806040526004361061004a5760003560e01c8063092d0afc1461004f5780639c318c7b14610090578063e7fb74c7146100cd578063ec8120c9146100e9578063f4f3576414610114575b600080fd5b34801561005b57600080fd5b5061007660048036038101906100719190610bba565b610151565b604051610087959493929190610c52565b60405180910390f35b34801561009c57600080fd5b506100b760048036038101906100b29190610bba565b6101c4565b6040516100c49190610ca5565b60405180910390f35b6100e760048036038101906100e29190610bba565b6101e4565b005b3480156100f557600080fd5b506100fe61075b565b60405161010b9190610cc0565b60405180910390f35b34801561012057600080fd5b5061013b60048036038101906101369190610cdb565b610768565b6040516101489190610cc0565b60405180910390f35b6001818154811061016157600080fd5b90600052602060002090600502016000915090508060000154908060010154908060020160009054906101000a900473ffffffffffffffffffffffffffffffffffffffff16908060030154908060040160009054906101000a900460ff16905085565b60026020528060005260406000206000915054906101000a900460ff1681565b806001805490508110801561021d5750806001828154811061020957610208610d1b565b5b906000526020600020906005020160000154145b61025c576040517f08c379a000000000000000000000000000000000000000000000000000000000815260040161025390610da7565b60405180910390fd5b816001818154811061027157610270610d1b565b5b906000526020600020906005020160040160009054906101000a900460ff16156102d0576040517f08c379a00000000000000000000000000000000000000000000000000000000081526004016102c790610e13565b60405180910390fd5b600183815481106102e4576102e3610d1b565b5b9060005260206000209060050201600101543073ffffffffffffffffffffffffffffffffffffffff1660008054906101000a900473ffffffffffffffffffffffffffffffffffffffff1673ffffffffffffffffffffffffffffffffffffffff1663081812fc836040518263ffffffff1660e01b81526004016103669190610cc0565b602060405180830381865afa158015610383573d6000803e3d6000fd5b505050506040513d601f19601f820116820180604052508101906103a79190610e71565b73ffffffffffffffffffffffffffffffffffffffff16146103fd576040517f08c379a00000000000000000000000000000000000000000000000000000000081526004016103f490610eea565b60405180910390fd5b6001848154811061041157610410610d1b565b5b906000526020600020906005020160030154341015610465576040517f08c379a000000000000000000000000000000000000000000000000000000000815260040161045c90610f56565b60405180910390fd5b6001848154811061047957610478610d1b565b5b906000526020600020906005020160020160009054906101000a900473ffffffffffffffffffffffffffffffffffffffff1673ffffffffffffffffffffffffffffffffffffffff163373ffffffffffffffffffffffffffffffffffffffff16036104e257600080fd5b60018085815481106104f7576104f6610d1b565b5b906000526020600020906005020160040160006101000a81548160ff0219169083151502179055506000600260006001878154811061053957610538610d1b565b5b906000526020600020906005020160010154815260200190815260200160002060006101000a81548160ff02191690831515021790555060008054906101000a900473ffffffffffffffffffffffffffffffffffffffff1673ffffffffffffffffffffffffffffffffffffffff166342842e0e600186815481106105c0576105bf610d1b565b5b906000526020600020906005020160020160009054906101000a900473ffffffffffffffffffffffffffffffffffffffff16336001888154811061060757610606610d1b565b5b9060005260206000209060050201600101546040518463ffffffff1660e01b815260040161063793929190610fe4565b600060405180830381600087803b15801561065157600080fd5b505af1158015610665573d6000803e3d6000fd5b505050506001848154811061067d5761067c610d1b565b5b906000526020600020906005020160020160009054906101000a900473ffffffffffffffffffffffffffffffffffffffff1673ffffffffffffffffffffffffffffffffffffffff166108fc349081150290604051600060405180830381858888f193505050501580156106f4573d6000803e3d6000fd5b507f8164c6f8917e418c49813e4586897c7067de5a886aa1bea980cd11fa57d4826484336001878154811061072c5761072b610d1b565b5b90600052602060002090600502016003015460405161074d9392919061101b565b60405180910390a150505050565b6000600180549050905090565b6000823373ffffffffffffffffffffffffffffffffffffffff1660008054906101000a900473ffffffffffffffffffffffffffffffffffffffff1673ffffffffffffffffffffffffffffffffffffffff16636352211e836040518263ffffffff1660e01b81526004016107db9190610cc0565b602060405180830381865afa1580156107f8573d6000803e3d6000fd5b505050506040513d601f19601f8201168201806040525081019061081c9190610e71565b73ffffffffffffffffffffffffffffffffffffffff1614610872576040517f08c379a00000000000000000000000000000000000000000000000000000000081526004016108699061109e565b60405180910390fd5b833073ffffffffffffffffffffffffffffffffffffffff1660008054906101000a900473ffffffffffffffffffffffffffffffffffffffff1673ffffffffffffffffffffffffffffffffffffffff1663081812fc836040518263ffffffff1660e01b81526004016108e39190610cc0565b602060405180830381865afa158015610900573d6000803e3d6000fd5b505050506040513d601f19601f820116820180604052508101906109249190610e71565b73ffffffffffffffffffffffffffffffffffffffff161461097a576040517f08c379a000000000000000000000000000000000000000000000000000000000815260040161097190610eea565b60405180910390fd5b6002600086815260200190815260200160002060009054906101000a900460ff16156109db576040517f08c379a00000000000000000000000000000000000000000000000000000000081526004016109d29061110a565b60405180910390fd5b6000600180549050905060016040518060a001604052808381526020018881526020013373ffffffffffffffffffffffffffffffffffffffff168152602001878152602001600015158152509080600181540180825580915050600190039060005260206000209060050201600090919091909150600082015181600001556020820151816001015560408201518160020160006101000a81548173ffffffffffffffffffffffffffffffffffffffff021916908373ffffffffffffffffffffffffffffffffffffffff1602179055506060820151816003015560808201518160040160006101000a81548160ff021916908315150217905550505060016002600088815260200190815260200160002060006101000a81548160ff0219169083151502179055508060018281548110610b1857610b17610d1b565b5b90600052602060002090600502016000015414610b3857610b3761112a565b5b7fafd8780f802588de8705083b0f6a33ac59b8d0228c80f9babe0549c1621c33f8818787604051610b6b93929190611159565b60405180910390a180935050505092915050565b600080fd5b6000819050919050565b610b9781610b84565b8114610ba257600080fd5b50565b600081359050610bb481610b8e565b92915050565b600060208284031215610bd057610bcf610b7f565b5b6000610bde84828501610ba5565b91505092915050565b610bf081610b84565b82525050565b600073ffffffffffffffffffffffffffffffffffffffff82169050919050565b6000610c2182610bf6565b9050919050565b610c3181610c16565b82525050565b60008115159050919050565b610c4c81610c37565b82525050565b600060a082019050610c676000830188610be7565b610c746020830187610be7565b610c816040830186610c28565b610c8e6060830185610be7565b610c9b6080830184610c43565b9695505050505050565b6000602082019050610cba6000830184610c43565b92915050565b6000602082019050610cd56000830184610be7565b92915050565b60008060408385031215610cf257610cf1610b7f565b5b6000610d0085828601610ba5565b9250506020610d1185828601610ba5565b9150509250929050565b7f4e487b7100000000000000000000000000000000000000000000000000000000600052603260045260246000fd5b600082825260208201905092915050565b7f436f756c64206e6f742066696e64206974656d00000000000000000000000000600082015250565b6000610d91601383610d4a565b9150610d9c82610d5b565b602082019050919050565b60006020820190508181036000830152610dc081610d84565b9050919050565b7f4974656d20697320616c726561647920736f6c64000000000000000000000000600082015250565b6000610dfd601483610d4a565b9150610e0882610dc7565b602082019050919050565b60006020820190508181036000830152610e2c81610df0565b9050919050565b6000610e3e82610bf6565b9050919050565b610e4e81610e33565b8114610e5957600080fd5b50565b600081519050610e6b81610e45565b92915050565b600060208284031215610e8757610e86610b7f565b5b6000610e9584828501610e5c565b91505092915050565b7f4d61726b6574206973206e6f7420617070726f76656400000000000000000000600082015250565b6000610ed4601683610d4a565b9150610edf82610e9e565b602082019050919050565b60006020820190508181036000830152610f0381610ec7565b9050919050565b7f4e6f7420656e6f7567682066756e64732073656e740000000000000000000000600082015250565b6000610f40601583610d4a565b9150610f4b82610f0a565b602082019050919050565b60006020820190508181036000830152610f6f81610f33565b9050919050565b6000819050919050565b6000610f9b610f96610f9184610bf6565b610f76565b610bf6565b9050919050565b6000610fad82610f80565b9050919050565b6000610fbf82610fa2565b9050919050565b610fcf81610fb4565b82525050565b610fde81610e33565b82525050565b6000606082019050610ff96000830186610fc6565b6110066020830185610fd5565b6110136040830184610be7565b949350505050565b60006060820190506110306000830186610be7565b61103d6020830185610fd5565b61104a6040830184610be7565b949350505050565b7f53656e64657220646f6573206e6f74206f776e20746865206974656d00000000600082015250565b6000611088601c83610d4a565b915061109382611052565b602082019050919050565b600060208201905081810360008301526110b78161107b565b9050919050565b7f4974656d20697320616c726561647920757020666f722073616c650000000000600082015250565b60006110f4601b83610d4a565b91506110ff826110be565b602082019050919050565b60006020820190508181036000830152611123816110e7565b9050919050565b7f4e487b7100000000000000000000000000000000000000000000000000000000600052600160045260246000fd5b600060608201905061116e6000830186610be7565b61117b6020830185610be7565b6111886040830184610be7565b94935050505056fea2646970667358221220000e5541668ddaf38700e42775a970266230bfd600368e834a1ff458021c2d2864736f6c634300080f0033",
  "immutableReferences": {},
  "source": "// SPDX-License-Identifier: MIT\npragma solidity ^0.8.0;\n\nimport \"./ArtToken.sol\";\nimport \"@openzeppelin/contracts/token/ERC721/ERC721.sol\";\nimport \"@openzeppelin/contracts/token/ERC721/extensions/ERC721Enumerable.sol\";\nimport \"@openzeppelin/contracts/token/ERC721/extensions/ERC721URIStorage.sol\";\nimport \"@openzeppelin/contracts/utils/Counters.sol\";\n\ncontract ArtMarketplace {\n  ArtToken private token;\n\n  struct ItemForSale {\n    uint256 id;\n    uint256 tokenId;\n    address payable seller;\n    uint256 price;\n    bool isSold;\n  }\n//  struct ItemForTransfer {\n//    uint256 id;\n//    uint256 tokenId;\n//    address payable owner;\n//    bool isSold;\n//  }\n//  struct ItemForEdit {\n//    uint256 id;\n//    uint256 tokenId;\n//    uint256 price;\n//  }\n\n  ItemForSale[] public itemsForSale;\n  mapping(uint256 => bool) public activeItems; // tokenId => active?\n\n\n  event itemAddedForSale(uint256 id, uint256 tokenId, uint256 price);\n  event itemSold(uint256 id, address buyer, uint256 price);\n  event itemEdit(uint256 id,uint256 tokenId,uint256 price);\n\n  constructor(ArtToken _token) {\n      token = _token;\n  }\n\n  modifier OnlyItemOwner(uint256 tokenId){\n    require(token.ownerOf(tokenId) == msg.sender, \"Sender does not own the item\");\n    _;\n  }\n\n  modifier HasTransferApproval(uint256 tokenId){\n    require(token.getApproved(tokenId) == address(this), \"Market is not approved\");\n    _;\n  }\n\n//  modifier HasEditApproval(uint256 tokenId){\n//    require(token.getApproved(tokenId) == address(this), \"Market is not approved\");\n//    _;\n//  }\n\n  modifier ItemExists(uint256 id){\n    require(id < itemsForSale.length && itemsForSale[id].id == id, \"Could not find item\");\n    _;\n  }\n\n  modifier IsForSale(uint256 id){\n    require(!itemsForSale[id].isSold, \"Item is already sold\");\n    _;\n  }\n\n  function putItemForSale(uint256 tokenId, uint256 price) \n    OnlyItemOwner(tokenId) \n    HasTransferApproval(tokenId)\n    external \n    returns (uint256){\n      require(!activeItems[tokenId], \"Item is already up for sale\");\n\n      uint256 newItemId = itemsForSale.length;\n      itemsForSale.push(ItemForSale({\n        id: newItemId,\n        tokenId: tokenId,\n        seller: payable(msg.sender),\n        price: price,\n        isSold: false\n      }));\n      activeItems[tokenId] = true;\n\n      assert(itemsForSale[newItemId].id == newItemId);\n      emit itemAddedForSale(newItemId, tokenId, price);\n\n      return newItemId;\n  }\n\n  function buyItem(uint256 id) \n    ItemExists(id)\n    IsForSale(id)\n    HasTransferApproval(itemsForSale[id].tokenId)\n    payable \n    external {\n      require(msg.value >= itemsForSale[id].price, \"Not enough funds sent\");\n      require(msg.sender != itemsForSale[id].seller);\n\n      itemsForSale[id].isSold = true;\n      activeItems[itemsForSale[id].tokenId] = false;\n      token.safeTransferFrom(itemsForSale[id].seller, msg.sender, itemsForSale[id].tokenId);\n      itemsForSale[id].seller.transfer(msg.value);\n\n      emit itemSold(id, msg.sender, itemsForSale[id].price);\n\n    }\n//    function transferNFT(uint256 tokenId, address receiver)\n//      ItemExists(id)\n//      external{\n//        token.safeTransferFrom(msg.sender, msg.sender, itemsForSale[id].tokenId);\n//    }\n//    function receiveNFT(uint256 tokenId)\n//      ItemExists(id)\n//      external{\n//\n//    }\n\n\n//  function edit(uint256 tokenId)\n//    OnlyItemOwner(tokenId)\n//    HasEditApproval(tokenId)\n//    external\n//    returns (uint256){\n//      edit.push(ItemForEdit({\n//        title: title,\n//        description: description,\n//        price: price\n//      }));\n//\n//      emit itemEdit(id,tokenId,price);\n//    }\n\n\n  function totalItemsForSale() external view returns(uint256) {\n    return itemsForSale.length;\n  }\n}\n\n//TODO:\n// - don't support bidding\n// - the user can't withdraw the item\n",
  "sourcePath": "/home/jimmy/NFT-Marketplace/contracts/ArtMarketplace.sol",
  "compiler": {
    "name": "solc",
    "version": "0.8.15+commit.e14f2714.Emscripten.clang"
  },
  "schemaVersion": "3.4.6",
  "updatedAt": "2022-07-07T08:22:41.335Z",
  "networkType": "ethereum",
  "devdoc": {
    "kind": "dev",
    "methods": {},
    "version": 1
  },
  "userdoc": {
    "kind": "user",
    "methods": {},
    "version": 1
  }
}