{
  "contractName": "ArtMarketplace",
  "abi": [
    {
      "inputs": [
        {
          "internalType": "contract ArtToken",
          "name": "_token",
          "type": "address"
        }
      ],
      "stateMutability": "nonpayable",
      "type": "constructor"
    },
    {
      "anonymous": false,
      "inputs": [
        {
          "indexed": false,
          "internalType": "uint256",
          "name": "id",
          "type": "uint256"
        },
        {
          "indexed": false,
          "internalType": "uint256",
          "name": "tokenId",
          "type": "uint256"
        },
        {
          "indexed": false,
          "internalType": "uint256",
          "name": "price",
          "type": "uint256"
        }
      ],
      "name": "itemAddedForSale",
      "type": "event"
    },
    {
      "anonymous": false,
      "inputs": [
        {
          "indexed": false,
          "internalType": "uint256",
          "name": "id",
          "type": "uint256"
        },
        {
          "indexed": false,
          "internalType": "address",
          "name": "buyer",
          "type": "address"
        },
        {
          "indexed": false,
          "internalType": "uint256",
          "name": "price",
          "type": "uint256"
        }
      ],
      "name": "itemSold",
      "type": "event"
    },
    {
      "inputs": [
        {
          "internalType": "uint256",
          "name": "",
          "type": "uint256"
        }
      ],
      "name": "activeItems",
      "outputs": [
        {
          "internalType": "bool",
          "name": "",
          "type": "bool"
        }
      ],
      "stateMutability": "view",
      "type": "function",
      "constant": true
    },
    {
      "inputs": [
        {
          "internalType": "uint256",
          "name": "",
          "type": "uint256"
        }
      ],
      "name": "itemsForSale",
      "outputs": [
        {
          "internalType": "uint256",
          "name": "id",
          "type": "uint256"
        },
        {
          "internalType": "uint256",
          "name": "tokenId",
          "type": "uint256"
        },
        {
          "internalType": "address payable",
          "name": "seller",
          "type": "address"
        },
        {
          "internalType": "uint256",
          "name": "price",
          "type": "uint256"
        },
        {
          "internalType": "bool",
          "name": "isSold",
          "type": "bool"
        }
      ],
      "stateMutability": "view",
      "type": "function",
      "constant": true
    },
    {
      "inputs": [
        {
          "internalType": "uint256",
          "name": "tokenId",
          "type": "uint256"
        },
        {
          "internalType": "uint256",
          "name": "price",
          "type": "uint256"
        }
      ],
      "name": "putItemForSale",
      "outputs": [
        {
          "internalType": "uint256",
          "name": "",
          "type": "uint256"
        }
      ],
      "stateMutability": "nonpayable",
      "type": "function"
    },
    {
      "inputs": [
        {
          "internalType": "uint256",
          "name": "id",
          "type": "uint256"
        }
      ],
      "name": "buyItem",
      "outputs": [],
      "stateMutability": "payable",
      "type": "function",
      "payable": true
    },
    {
      "inputs": [],
      "name": "totalItemsForSale",
      "outputs": [
        {
          "internalType": "uint256",
          "name": "",
          "type": "uint256"
        }
      ],
      "stateMutability": "view",
      "type": "function",
      "constant": true
    }
  ],
  "bytecode": "0x60806040523480156200001157600080fd5b506040516200131838038062001318833981810160405281019062000037919062000095565b806000806101000a81548173ffffffffffffffffffffffffffffffffffffffff021916908373ffffffffffffffffffffffffffffffffffffffff160217905550506200012e565b6000815190506200008f8162000114565b92915050565b600060208284031215620000ae57620000ad6200010f565b5b6000620000be848285016200007e565b91505092915050565b6000620000d482620000ef565b9050919050565b6000620000e882620000c7565b9050919050565b600073ffffffffffffffffffffffffffffffffffffffff82169050919050565b600080fd5b6200011f81620000db565b81146200012b57600080fd5b50565b6111da806200013e6000396000f3fe60806040526004361061004a5760003560e01c8063092d0afc1461004f5780639c318c7b14610090578063e7fb74c7146100cd578063ec8120c9146100e9578063f4f3576414610114575b600080fd5b34801561005b57600080fd5b5061007660048036038101906100719190610c04565b610151565b604051610087959493929190610ef2565b60405180910390f35b34801561009c57600080fd5b506100b760048036038101906100b29190610c04565b6101c4565b6040516100c49190610dc5565b60405180910390f35b6100e760048036038101906100e29190610c04565b6101e4565b005b3480156100f557600080fd5b506100fe61076b565b60405161010b9190610ea0565b60405180910390f35b34801561012057600080fd5b5061013b60048036038101906101369190610c31565b610778565b6040516101489190610ea0565b60405180910390f35b6001818154811061016157600080fd5b90600052602060002090600502016000915090508060000154908060010154908060020160009054906101000a900473ffffffffffffffffffffffffffffffffffffffff16908060030154908060040160009054906101000a900460ff16905085565b60026020528060005260406000206000915054906101000a900460ff1681565b806001805490508110801561021d575080600182815481106102095761020861104c565b5b906000526020600020906005020160000154145b61025c576040517f08c379a000000000000000000000000000000000000000000000000000000000815260040161025390610e40565b60405180910390fd5b81600181815481106102715761027061104c565b5b906000526020600020906005020160040160009054906101000a900460ff16156102d0576040517f08c379a00000000000000000000000000000000000000000000000000000000081526004016102c790610e80565b60405180910390fd5b600183815481106102e4576102e361104c565b5b9060005260206000209060050201600101543073ffffffffffffffffffffffffffffffffffffffff1660008054906101000a900473ffffffffffffffffffffffffffffffffffffffff1673ffffffffffffffffffffffffffffffffffffffff1663081812fc836040518263ffffffff1660e01b81526004016103669190610ea0565b60206040518083038186803b15801561037e57600080fd5b505afa158015610392573d6000803e3d6000fd5b505050506040513d601f19601f820116820180604052508101906103b69190610bd7565b73ffffffffffffffffffffffffffffffffffffffff161461040c576040517f08c379a000000000000000000000000000000000000000000000000000000000815260040161040390610e00565b60405180910390fd5b600184815481106104205761041f61104c565b5b906000526020600020906005020160030154341015610474576040517f08c379a000000000000000000000000000000000000000000000000000000000815260040161046b90610de0565b60405180910390fd5b600184815481106104885761048761104c565b5b906000526020600020906005020160020160009054906101000a900473ffffffffffffffffffffffffffffffffffffffff1673ffffffffffffffffffffffffffffffffffffffff163373ffffffffffffffffffffffffffffffffffffffff1614156104f257600080fd5b60018085815481106105075761050661104c565b5b906000526020600020906005020160040160006101000a81548160ff021916908315150217905550600060026000600187815481106105495761054861104c565b5b906000526020600020906005020160010154815260200190815260200160002060006101000a81548160ff02191690831515021790555060008054906101000a900473ffffffffffffffffffffffffffffffffffffffff1673ffffffffffffffffffffffffffffffffffffffff166342842e0e600186815481106105d0576105cf61104c565b5b906000526020600020906005020160020160009054906101000a900473ffffffffffffffffffffffffffffffffffffffff1633600188815481106106175761061661104c565b5b9060005260206000209060050201600101546040518463ffffffff1660e01b815260040161064793929190610d8e565b600060405180830381600087803b15801561066157600080fd5b505af1158015610675573d6000803e3d6000fd5b505050506001848154811061068d5761068c61104c565b5b906000526020600020906005020160020160009054906101000a900473ffffffffffffffffffffffffffffffffffffffff1673ffffffffffffffffffffffffffffffffffffffff166108fc349081150290604051600060405180830381858888f19350505050158015610704573d6000803e3d6000fd5b507f8164c6f8917e418c49813e4586897c7067de5a886aa1bea980cd11fa57d4826484336001878154811061073c5761073b61104c565b5b90600052602060002090600502016003015460405161075d93929190610ebb565b60405180910390a150505050565b6000600180549050905090565b6000823373ffffffffffffffffffffffffffffffffffffffff1660008054906101000a900473ffffffffffffffffffffffffffffffffffffffff1673ffffffffffffffffffffffffffffffffffffffff16636352211e836040518263ffffffff1660e01b81526004016107eb9190610ea0565b60206040518083038186803b15801561080357600080fd5b505afa158015610817573d6000803e3d6000fd5b505050506040513d601f19601f8201168201806040525081019061083b9190610bd7565b73ffffffffffffffffffffffffffffffffffffffff1614610891576040517f08c379a000000000000000000000000000000000000000000000000000000000815260040161088890610e20565b60405180910390fd5b833073ffffffffffffffffffffffffffffffffffffffff1660008054906101000a900473ffffffffffffffffffffffffffffffffffffffff1673ffffffffffffffffffffffffffffffffffffffff1663081812fc836040518263ffffffff1660e01b81526004016109029190610ea0565b60206040518083038186803b15801561091a57600080fd5b505afa15801561092e573d6000803e3d6000fd5b505050506040513d601f19601f820116820180604052508101906109529190610bd7565b73ffffffffffffffffffffffffffffffffffffffff16146109a8576040517f08c379a000000000000000000000000000000000000000000000000000000000815260040161099f90610e00565b60405180910390fd5b6002600086815260200190815260200160002060009054906101000a900460ff1615610a09576040517f08c379a0000000000000000000000000000000000000000000000000000000008152600401610a0090610e60565b60405180910390fd5b6000600180549050905060016040518060a001604052808381526020018881526020013373ffffffffffffffffffffffffffffffffffffffff168152602001878152602001600015158152509080600181540180825580915050600190039060005260206000209060050201600090919091909150600082015181600001556020820151816001015560408201518160020160006101000a81548173ffffffffffffffffffffffffffffffffffffffff021916908373ffffffffffffffffffffffffffffffffffffffff1602179055506060820151816003015560808201518160040160006101000a81548160ff021916908315150217905550505060016002600088815260200190815260200160002060006101000a81548160ff0219169083151502179055508060018281548110610b4657610b4561104c565b5b90600052602060002090600502016000015414610b6657610b6561101d565b5b7fafd8780f802588de8705083b0f6a33ac59b8d0228c80f9babe0549c1621c33f8818787604051610b9993929190610f45565b60405180910390a180935050505092915050565b600081519050610bbc81611176565b92915050565b600081359050610bd18161118d565b92915050565b600060208284031215610bed57610bec61107b565b5b6000610bfb84828501610bad565b91505092915050565b600060208284031215610c1a57610c1961107b565b5b6000610c2884828501610bc2565b91505092915050565b60008060408385031215610c4857610c4761107b565b5b6000610c5685828601610bc2565b9250506020610c6785828601610bc2565b9150509250929050565b610c7a81610fe7565b82525050565b610c8981610f9f565b82525050565b610c9881610f8d565b82525050565b610ca781610fb1565b82525050565b6000610cba601583610f7c565b9150610cc582611080565b602082019050919050565b6000610cdd601683610f7c565b9150610ce8826110a9565b602082019050919050565b6000610d00601c83610f7c565b9150610d0b826110d2565b602082019050919050565b6000610d23601383610f7c565b9150610d2e826110fb565b602082019050919050565b6000610d46601b83610f7c565b9150610d5182611124565b602082019050919050565b6000610d69601483610f7c565b9150610d748261114d565b602082019050919050565b610d8881610fdd565b82525050565b6000606082019050610da36000830186610c71565b610db06020830185610c8f565b610dbd6040830184610d7f565b949350505050565b6000602082019050610dda6000830184610c9e565b92915050565b60006020820190508181036000830152610df981610cad565b9050919050565b60006020820190508181036000830152610e1981610cd0565b9050919050565b60006020820190508181036000830152610e3981610cf3565b9050919050565b60006020820190508181036000830152610e5981610d16565b9050919050565b60006020820190508181036000830152610e7981610d39565b9050919050565b60006020820190508181036000830152610e9981610d5c565b9050919050565b6000602082019050610eb56000830184610d7f565b92915050565b6000606082019050610ed06000830186610d7f565b610edd6020830185610c8f565b610eea6040830184610d7f565b949350505050565b600060a082019050610f076000830188610d7f565b610f146020830187610d7f565b610f216040830186610c80565b610f2e6060830185610d7f565b610f3b6080830184610c9e565b9695505050505050565b6000606082019050610f5a6000830186610d7f565b610f676020830185610d7f565b610f746040830184610d7f565b949350505050565b600082825260208201905092915050565b6000610f9882610fbd565b9050919050565b6000610faa82610fbd565b9050919050565b60008115159050919050565b600073ffffffffffffffffffffffffffffffffffffffff82169050919050565b6000819050919050565b6000610ff282610ff9565b9050919050565b60006110048261100b565b9050919050565b600061101682610fbd565b9050919050565b7f4e487b7100000000000000000000000000000000000000000000000000000000600052600160045260246000fd5b7f4e487b7100000000000000000000000000000000000000000000000000000000600052603260045260246000fd5b600080fd5b7f4e6f7420656e6f7567682066756e64732073656e740000000000000000000000600082015250565b7f4d61726b6574206973206e6f7420617070726f76656400000000000000000000600082015250565b7f53656e64657220646f6573206e6f74206f776e20746865206974656d00000000600082015250565b7f436f756c64206e6f742066696e64206974656d00000000000000000000000000600082015250565b7f4974656d20697320616c726561647920757020666f722073616c650000000000600082015250565b7f4974656d20697320616c726561647920736f6c64000000000000000000000000600082015250565b61117f81610f8d565b811461118a57600080fd5b50565b61119681610fdd565b81146111a157600080fd5b5056fea2646970667358221220042524b4f1ef1eed43c984fffa804a5df41ce784182769d85b549ba18b96bb7464736f6c63430008070033",
  "immutableReferences": {},
  "source": "// SPDX-License-Identifier: MIT\npragma solidity ^0.8.0;\n\nimport \"./ArtToken.sol\";\n\ncontract ArtMarketplace {\n  ArtToken private token;\n\n  struct ItemForSale {\n    uint256 id;\n    uint256 tokenId;\n    address payable seller;\n    uint256 price;\n    bool isSold;\n  }\n\n  ItemForSale[] public itemsForSale;\n  mapping(uint256 => bool) public activeItems; // tokenId => ativo?\n\n  event itemAddedForSale(uint256 id, uint256 tokenId, uint256 price);\n  event itemSold(uint256 id, address buyer, uint256 price);\n\n  constructor(ArtToken _token) {\n      token = _token;\n  }\n\n  modifier OnlyItemOwner(uint256 tokenId){\n    require(token.ownerOf(tokenId) == msg.sender, \"Sender does not own the item\");\n    _;\n  }\n\n  modifier HasTransferApproval(uint256 tokenId){\n    require(token.getApproved(tokenId) == address(this), \"Market is not approved\");\n    _;\n  }\n\n  modifier ItemExists(uint256 id){\n    require(id < itemsForSale.length && itemsForSale[id].id == id, \"Could not find item\");\n    _;\n  }\n\n  modifier IsForSale(uint256 id){\n    require(!itemsForSale[id].isSold, \"Item is already sold\");\n    _;\n  }\n\n  function putItemForSale(uint256 tokenId, uint256 price) \n    OnlyItemOwner(tokenId) \n    HasTransferApproval(tokenId) \n    external \n    returns (uint256){\n      require(!activeItems[tokenId], \"Item is already up for sale\");\n\n      uint256 newItemId = itemsForSale.length;\n      itemsForSale.push(ItemForSale({\n        id: newItemId,\n        tokenId: tokenId,\n        seller: payable(msg.sender),\n        price: price,\n        isSold: false\n      }));\n      activeItems[tokenId] = true;\n\n      assert(itemsForSale[newItemId].id == newItemId);\n      emit itemAddedForSale(newItemId, tokenId, price);\n      return newItemId;\n  }\n\n  function buyItem(uint256 id) \n    ItemExists(id)\n    IsForSale(id)\n    HasTransferApproval(itemsForSale[id].tokenId)\n    payable \n    external {\n      require(msg.value >= itemsForSale[id].price, \"Not enough funds sent\");\n      require(msg.sender != itemsForSale[id].seller);\n\n      itemsForSale[id].isSold = true;\n      activeItems[itemsForSale[id].tokenId] = false;\n      token.safeTransferFrom(itemsForSale[id].seller, msg.sender, itemsForSale[id].tokenId);\n      itemsForSale[id].seller.transfer(msg.value);\n\n      emit itemSold(id, msg.sender, itemsForSale[id].price);\n    }\n\n  function totalItemsForSale() external view returns(uint256) {\n    return itemsForSale.length;\n  }\n}\n\n//TODO:\n// - don't support bidding\n// - the user can't withdraw the item\n",
  "sourcePath": "/home/bravo/Documents/GitHub/NFT-Marketplace/contracts/ArtMarketplace.sol",
  "compiler": {
    "name": "solc",
    "version": "0.8.7+commit.e28d00a7.Emscripten.clang"
  },
  "schemaVersion": "3.4.1",
  "updatedAt": "2021-09-29T19:45:50.445Z",
  "networkType": "ethereum",
  "devdoc": {
    "kind": "dev",
    "methods": {},
    "version": 1
  },
  "userdoc": {
    "kind": "user",
    "methods": {},
    "version": 1
  }
}