{
  "contractName": "ArtToken",
  "abi": [
    {
      "inputs": [],
      "stateMutability": "nonpayable",
      "type": "constructor"
    },
    {
      "anonymous": false,
      "inputs": [
        {
          "indexed": true,
          "internalType": "address",
          "name": "owner",
          "type": "address"
        },
        {
          "indexed": true,
          "internalType": "address",
          "name": "approved",
          "type": "address"
        },
        {
          "indexed": true,
          "internalType": "uint256",
          "name": "tokenId",
          "type": "uint256"
        }
      ],
      "name": "Approval",
      "type": "event"
    },
    {
      "anonymous": false,
      "inputs": [
        {
          "indexed": true,
          "internalType": "address",
          "name": "owner",
          "type": "address"
        },
        {
          "indexed": true,
          "internalType": "address",
          "name": "operator",
          "type": "address"
        },
        {
          "indexed": false,
          "internalType": "bool",
          "name": "approved",
          "type": "bool"
        }
      ],
      "name": "ApprovalForAll",
      "type": "event"
    },
    {
      "anonymous": false,
      "inputs": [
        {
          "indexed": true,
          "internalType": "address",
          "name": "from",
          "type": "address"
        },
        {
          "indexed": true,
          "internalType": "address",
          "name": "to",
          "type": "address"
        },
        {
          "indexed": true,
          "internalType": "uint256",
          "name": "tokenId",
          "type": "uint256"
        }
      ],
      "name": "Transfer",
      "type": "event"
    },
    {
      "inputs": [
        {
          "internalType": "uint256",
          "name": "",
          "type": "uint256"
        }
      ],
      "name": "Items",
      "outputs": [
        {
          "internalType": "uint256",
          "name": "id",
          "type": "uint256"
        },
        {
          "internalType": "address",
          "name": "creator",
          "type": "address"
        },
        {
          "internalType": "string",
          "name": "uri",
          "type": "string"
        }
      ],
      "stateMutability": "view",
      "type": "function",
      "constant": true
    },
    {
      "inputs": [
        {
          "internalType": "address",
          "name": "to",
          "type": "address"
        },
        {
          "internalType": "uint256",
          "name": "tokenId",
          "type": "uint256"
        }
      ],
      "name": "approve",
      "outputs": [],
      "stateMutability": "nonpayable",
      "type": "function"
    },
    {
      "inputs": [
        {
          "internalType": "address",
          "name": "owner",
          "type": "address"
        }
      ],
      "name": "balanceOf",
      "outputs": [
        {
          "internalType": "uint256",
          "name": "",
          "type": "uint256"
        }
      ],
      "stateMutability": "view",
      "type": "function",
      "constant": true
    },
    {
      "inputs": [
        {
          "internalType": "uint256",
          "name": "tokenId",
          "type": "uint256"
        }
      ],
      "name": "getApproved",
      "outputs": [
        {
          "internalType": "address",
          "name": "",
          "type": "address"
        }
      ],
      "stateMutability": "view",
      "type": "function",
      "constant": true
    },
    {
      "inputs": [
        {
          "internalType": "address",
          "name": "owner",
          "type": "address"
        },
        {
          "internalType": "address",
          "name": "operator",
          "type": "address"
        }
      ],
      "name": "isApprovedForAll",
      "outputs": [
        {
          "internalType": "bool",
          "name": "",
          "type": "bool"
        }
      ],
      "stateMutability": "view",
      "type": "function",
      "constant": true
    },
    {
      "inputs": [],
      "name": "marketplace",
      "outputs": [
        {
          "internalType": "address",
          "name": "",
          "type": "address"
        }
      ],
      "stateMutability": "view",
      "type": "function",
      "constant": true
    },
    {
      "inputs": [],
      "name": "name",
      "outputs": [
        {
          "internalType": "string",
          "name": "",
          "type": "string"
        }
      ],
      "stateMutability": "view",
      "type": "function",
      "constant": true
    },
    {
      "inputs": [
        {
          "internalType": "uint256",
          "name": "tokenId",
          "type": "uint256"
        }
      ],
      "name": "ownerOf",
      "outputs": [
        {
          "internalType": "address",
          "name": "",
          "type": "address"
        }
      ],
      "stateMutability": "view",
      "type": "function",
      "constant": true
    },
    {
      "inputs": [
        {
          "internalType": "address",
          "name": "from",
          "type": "address"
        },
        {
          "internalType": "address",
          "name": "to",
          "type": "address"
        },
        {
          "internalType": "uint256",
          "name": "tokenId",
          "type": "uint256"
        }
      ],
      "name": "safeTransferFrom",
      "outputs": [],
      "stateMutability": "nonpayable",
      "type": "function"
    },
    {
      "inputs": [
        {
          "internalType": "address",
          "name": "from",
          "type": "address"
        },
        {
          "internalType": "address",
          "name": "to",
          "type": "address"
        },
        {
          "internalType": "uint256",
          "name": "tokenId",
          "type": "uint256"
        },
        {
          "internalType": "bytes",
          "name": "_data",
          "type": "bytes"
        }
      ],
      "name": "safeTransferFrom",
      "outputs": [],
      "stateMutability": "nonpayable",
      "type": "function"
    },
    {
      "inputs": [
        {
          "internalType": "address",
          "name": "operator",
          "type": "address"
        },
        {
          "internalType": "bool",
          "name": "approved",
          "type": "bool"
        }
      ],
      "name": "setApprovalForAll",
      "outputs": [],
      "stateMutability": "nonpayable",
      "type": "function"
    },
    {
      "inputs": [
        {
          "internalType": "bytes4",
          "name": "interfaceId",
          "type": "bytes4"
        }
      ],
      "name": "supportsInterface",
      "outputs": [
        {
          "internalType": "bool",
          "name": "",
          "type": "bool"
        }
      ],
      "stateMutability": "view",
      "type": "function",
      "constant": true
    },
    {
      "inputs": [],
      "name": "symbol",
      "outputs": [
        {
          "internalType": "string",
          "name": "",
          "type": "string"
        }
      ],
      "stateMutability": "view",
      "type": "function",
      "constant": true
    },
    {
      "inputs": [
        {
          "internalType": "uint256",
          "name": "index",
          "type": "uint256"
        }
      ],
      "name": "tokenByIndex",
      "outputs": [
        {
          "internalType": "uint256",
          "name": "",
          "type": "uint256"
        }
      ],
      "stateMutability": "view",
      "type": "function",
      "constant": true
    },
    {
      "inputs": [
        {
          "internalType": "address",
          "name": "owner",
          "type": "address"
        },
        {
          "internalType": "uint256",
          "name": "index",
          "type": "uint256"
        }
      ],
      "name": "tokenOfOwnerByIndex",
      "outputs": [
        {
          "internalType": "uint256",
          "name": "",
          "type": "uint256"
        }
      ],
      "stateMutability": "view",
      "type": "function",
      "constant": true
    },
    {
      "inputs": [],
      "name": "totalSupply",
      "outputs": [
        {
          "internalType": "uint256",
          "name": "",
          "type": "uint256"
        }
      ],
      "stateMutability": "view",
      "type": "function",
      "constant": true
    },
    {
      "inputs": [
        {
          "internalType": "address",
          "name": "from",
          "type": "address"
        },
        {
          "internalType": "address",
          "name": "to",
          "type": "address"
        },
        {
          "internalType": "uint256",
          "name": "tokenId",
          "type": "uint256"
        }
      ],
      "name": "transferFrom",
      "outputs": [],
      "stateMutability": "nonpayable",
      "type": "function"
    },
    {
      "inputs": [
        {
          "internalType": "string",
          "name": "uri",
          "type": "string"
        }
      ],
      "name": "mint",
      "outputs": [
        {
          "internalType": "uint256",
          "name": "",
          "type": "uint256"
        }
      ],
      "stateMutability": "nonpayable",
      "type": "function"
    },
    {
      "inputs": [
        {
          "internalType": "uint256",
          "name": "tokenId",
          "type": "uint256"
        }
      ],
      "name": "tokenURI",
      "outputs": [
        {
          "internalType": "string",
          "name": "",
          "type": "string"
        }
      ],
      "stateMutability": "view",
      "type": "function",
      "constant": true
    },
    {
      "inputs": [
        {
          "internalType": "address",
          "name": "market",
          "type": "address"
        }
      ],
      "name": "setMarketplace",
      "outputs": [],
      "stateMutability": "nonpayable",
      "type": "function"
    },
    {
      "inputs": [
        {
          "internalType": "uint256",
          "name": "tokenId",
          "type": "uint256"
        }
      ],
      "name": "giveResaleApproval",
      "outputs": [],
      "stateMutability": "nonpayable",
      "type": "function"
    }
  ],
  "bytecode": "0x60806040523480156200001157600080fd5b506040518060400160405280600881526020017f417274546f6b656e0000000000000000000000000000000000000000000000008152506040518060400160405280600481526020017f4152544b0000000000000000000000000000000000000000000000000000000081525081600090816200008f919062000324565b508060019081620000a1919062000324565b5050506200040b565b600081519050919050565b7f4e487b7100000000000000000000000000000000000000000000000000000000600052604160045260246000fd5b7f4e487b7100000000000000000000000000000000000000000000000000000000600052602260045260246000fd5b600060028204905060018216806200012c57607f821691505b602082108103620001425762000141620000e4565b5b50919050565b60008190508160005260206000209050919050565b60006020601f8301049050919050565b600082821b905092915050565b600060088302620001ac7fffffffffffffffffffffffffffffffffffffffffffffffffffffffffffffffff826200016d565b620001b886836200016d565b95508019841693508086168417925050509392505050565b6000819050919050565b6000819050919050565b600062000205620001ff620001f984620001d0565b620001da565b620001d0565b9050919050565b6000819050919050565b6200022183620001e4565b6200023962000230826200020c565b8484546200017a565b825550505050565b600090565b6200025062000241565b6200025d81848462000216565b505050565b5b8181101562000285576200027960008262000246565b60018101905062000263565b5050565b601f821115620002d4576200029e8162000148565b620002a9846200015d565b81016020851015620002b9578190505b620002d1620002c8856200015d565b83018262000262565b50505b505050565b600082821c905092915050565b6000620002f960001984600802620002d9565b1980831691505092915050565b6000620003148383620002e6565b9150826002028217905092915050565b6200032f82620000aa565b67ffffffffffffffff8111156200034b576200034a620000b5565b5b62000357825462000113565b6200036482828562000289565b600060209050601f8311600181146200039c576000841562000387578287015190505b62000393858262000306565b86555062000403565b601f198416620003ac8662000148565b60005b82811015620003d657848901518255600182019150602085019450602081019050620003af565b86831015620003f65784890151620003f2601f891682620002e6565b8355505b6001600288020188555050505b505050505050565b613456806200041b6000396000f3fe608060405234801561001057600080fd5b50600436106101375760003560e01c80636352211e116100b8578063a22cb4651161007c578063a22cb46514610374578063abc8c7af14610390578063b88d4fde146103ae578063c87b56dd146103ca578063d85d3d27146103fa578063e985e9c51461042a57610137565b80636352211e146102be57806370a08231146102ee57806373ad6c2d1461031e5780637e78146c1461033a57806395d89b411461035657610137565b806318160ddd116100ff57806318160ddd1461020857806323b872dd146102265780632f745c591461024257806342842e0e146102725780634f6ccce71461028e57610137565b806301ffc9a71461013c57806306fdde031461016c578063081812fc1461018a578063095ea7b3146101ba57806317b47cc4146101d6575b600080fd5b61015660048036038101906101519190611f89565b61045a565b6040516101639190611fd1565b60405180910390f35b6101746104d4565b6040516101819190612085565b60405180910390f35b6101a4600480360381019061019f91906120dd565b610566565b6040516101b1919061214b565b60405180910390f35b6101d460048036038101906101cf9190612192565b6105eb565b005b6101f060048036038101906101eb91906120dd565b610702565b6040516101ff939291906121e1565b60405180910390f35b6102106107d4565b60405161021d919061221f565b60405180910390f35b610240600480360381019061023b919061223a565b6107e1565b005b61025c60048036038101906102579190612192565b610841565b604051610269919061221f565b60405180910390f35b61028c6004803603810190610287919061223a565b6108e6565b005b6102a860048036038101906102a391906120dd565b610906565b6040516102b5919061221f565b60405180910390f35b6102d860048036038101906102d391906120dd565b610977565b6040516102e5919061214b565b60405180910390f35b6103086004803603810190610303919061228d565b610a28565b604051610315919061221f565b60405180910390f35b6103386004803603810190610333919061228d565b610adf565b005b610354600480360381019061034f91906120dd565b610b23565b005b61035e610bc9565b60405161036b9190612085565b60405180910390f35b61038e600480360381019061038991906122e6565b610c5b565b005b610398610ddb565b6040516103a5919061214b565b60405180910390f35b6103c860048036038101906103c3919061245b565b610e01565b005b6103e460048036038101906103df91906120dd565b610e63565b6040516103f19190612085565b60405180910390f35b610414600480360381019061040f919061257f565b610f53565b604051610421919061221f565b60405180910390f35b610444600480360381019061043f91906125c8565b61105a565b6040516104519190611fd1565b60405180910390f35b60007f780e9d63000000000000000000000000000000000000000000000000000000007bffffffffffffffffffffffffffffffffffffffffffffffffffffffff1916827bffffffffffffffffffffffffffffffffffffffffffffffffffffffff191614806104cd57506104cc826110ee565b5b9050919050565b6060600080546104e390612637565b80601f016020809104026020016040519081016040528092919081815260200182805461050f90612637565b801561055c5780601f106105315761010080835404028352916020019161055c565b820191906000526020600020905b81548152906001019060200180831161053f57829003601f168201915b5050505050905090565b6000610571826111d0565b6105b0576040517f08c379a00000000000000000000000000000000000000000000000000000000081526004016105a7906126da565b60405180910390fd5b6004600083815260200190815260200160002060009054906101000a900473ffffffffffffffffffffffffffffffffffffffff169050919050565b60006105f682610977565b90508073ffffffffffffffffffffffffffffffffffffffff168373ffffffffffffffffffffffffffffffffffffffff1603610666576040517f08c379a000000000000000000000000000000000000000000000000000000000815260040161065d9061276c565b60405180910390fd5b8073ffffffffffffffffffffffffffffffffffffffff1661068561123c565b73ffffffffffffffffffffffffffffffffffffffff1614806106b457506106b3816106ae61123c565b61105a565b5b6106f3576040517f08c379a00000000000000000000000000000000000000000000000000000000081526004016106ea906127fe565b60405180910390fd5b6106fd8383611244565b505050565b600c6020528060005260406000206000915090508060000154908060010160009054906101000a900473ffffffffffffffffffffffffffffffffffffffff169080600201805461075190612637565b80601f016020809104026020016040519081016040528092919081815260200182805461077d90612637565b80156107ca5780601f1061079f576101008083540402835291602001916107ca565b820191906000526020600020905b8154815290600101906020018083116107ad57829003601f168201915b5050505050905083565b6000600880549050905090565b6107f26107ec61123c565b826112fd565b610831576040517f08c379a000000000000000000000000000000000000000000000000000000000815260040161082890612890565b60405180910390fd5b61083c8383836113db565b505050565b600061084c83610a28565b821061088d576040517f08c379a000000000000000000000000000000000000000000000000000000000815260040161088490612922565b60405180910390fd5b600660008473ffffffffffffffffffffffffffffffffffffffff1673ffffffffffffffffffffffffffffffffffffffff168152602001908152602001600020600083815260200190815260200160002054905092915050565b61090183838360405180602001604052806000815250610e01565b505050565b60006109106107d4565b8210610951576040517f08c379a0000000000000000000000000000000000000000000000000000000008152600401610948906129b4565b60405180910390fd5b60088281548110610965576109646129d4565b5b90600052602060002001549050919050565b6000806002600084815260200190815260200160002060009054906101000a900473ffffffffffffffffffffffffffffffffffffffff169050600073ffffffffffffffffffffffffffffffffffffffff168173ffffffffffffffffffffffffffffffffffffffff1603610a1f576040517f08c379a0000000000000000000000000000000000000000000000000000000008152600401610a1690612a75565b60405180910390fd5b80915050919050565b60008073ffffffffffffffffffffffffffffffffffffffff168273ffffffffffffffffffffffffffffffffffffffff1603610a98576040517f08c379a0000000000000000000000000000000000000000000000000000000008152600401610a8f90612b07565b60405180910390fd5b600360008373ffffffffffffffffffffffffffffffffffffffff1673ffffffffffffffffffffffffffffffffffffffff168152602001908152602001600020549050919050565b80600b60006101000a81548173ffffffffffffffffffffffffffffffffffffffff021916908373ffffffffffffffffffffffffffffffffffffffff16021790555050565b3373ffffffffffffffffffffffffffffffffffffffff16610b4382610977565b73ffffffffffffffffffffffffffffffffffffffff1614610b99576040517f08c379a0000000000000000000000000000000000000000000000000000000008152600401610b9090612b99565b60405180910390fd5b610bc6600b60009054906101000a900473ffffffffffffffffffffffffffffffffffffffff166001610c5b565b50565b606060018054610bd890612637565b80601f0160208091040260200160405190810160405280929190818152602001828054610c0490612637565b8015610c515780601f10610c2657610100808354040283529160200191610c51565b820191906000526020600020905b815481529060010190602001808311610c3457829003601f168201915b5050505050905090565b610c6361123c565b73ffffffffffffffffffffffffffffffffffffffff168273ffffffffffffffffffffffffffffffffffffffff1603610cd0576040517f08c379a0000000000000000000000000000000000000000000000000000000008152600401610cc790612c05565b60405180910390fd5b8060056000610cdd61123c565b73ffffffffffffffffffffffffffffffffffffffff1673ffffffffffffffffffffffffffffffffffffffff16815260200190815260200160002060008473ffffffffffffffffffffffffffffffffffffffff1673ffffffffffffffffffffffffffffffffffffffff16815260200190815260200160002060006101000a81548160ff0219169083151502179055508173ffffffffffffffffffffffffffffffffffffffff16610d8a61123c565b73ffffffffffffffffffffffffffffffffffffffff167f17307eab39ab6107e8899845ad3d59bd9653f200f220920489ca2b5937696c3183604051610dcf9190611fd1565b60405180910390a35050565b600b60009054906101000a900473ffffffffffffffffffffffffffffffffffffffff1681565b610e12610e0c61123c565b836112fd565b610e51576040517f08c379a0000000000000000000000000000000000000000000000000000000008152600401610e4890612890565b60405180910390fd5b610e5d84848484611636565b50505050565b6060610e6e826111d0565b610ead576040517f08c379a0000000000000000000000000000000000000000000000000000000008152600401610ea490612c97565b60405180910390fd5b600c60008381526020019081526020016000206002018054610ece90612637565b80601f0160208091040260200160405190810160405280929190818152602001828054610efa90612637565b8015610f475780601f10610f1c57610100808354040283529160200191610f47565b820191906000526020600020905b815481529060010190602001808311610f2a57829003601f168201915b50505050509050919050565b6000610f5f600a611692565b6000610f6b600a6116a8565b9050610f7733826116b6565b610fa3600b60009054906101000a900473ffffffffffffffffffffffffffffffffffffffff16826105eb565b60405180606001604052808281526020013373ffffffffffffffffffffffffffffffffffffffff16815260200184815250600c60008381526020019081526020016000206000820151816000015560208201518160010160006101000a81548173ffffffffffffffffffffffffffffffffffffffff021916908373ffffffffffffffffffffffffffffffffffffffff160217905550604082015181600201908161104d9190612e63565b5090505080915050919050565b6000600560008473ffffffffffffffffffffffffffffffffffffffff1673ffffffffffffffffffffffffffffffffffffffff16815260200190815260200160002060008373ffffffffffffffffffffffffffffffffffffffff1673ffffffffffffffffffffffffffffffffffffffff16815260200190815260200160002060009054906101000a900460ff16905092915050565b60007f80ac58cd000000000000000000000000000000000000000000000000000000007bffffffffffffffffffffffffffffffffffffffffffffffffffffffff1916827bffffffffffffffffffffffffffffffffffffffffffffffffffffffff191614806111b957507f5b5e139f000000000000000000000000000000000000000000000000000000007bffffffffffffffffffffffffffffffffffffffffffffffffffffffff1916827bffffffffffffffffffffffffffffffffffffffffffffffffffffffff1916145b806111c957506111c8826116d4565b5b9050919050565b60008073ffffffffffffffffffffffffffffffffffffffff166002600084815260200190815260200160002060009054906101000a900473ffffffffffffffffffffffffffffffffffffffff1673ffffffffffffffffffffffffffffffffffffffff1614159050919050565b600033905090565b816004600083815260200190815260200160002060006101000a81548173ffffffffffffffffffffffffffffffffffffffff021916908373ffffffffffffffffffffffffffffffffffffffff160217905550808273ffffffffffffffffffffffffffffffffffffffff166112b783610977565b73ffffffffffffffffffffffffffffffffffffffff167f8c5be1e5ebec7d5bd14f71427d1e84f3dd0314c0f7b2291e5b200ac8c7c3b92560405160405180910390a45050565b6000611308826111d0565b611347576040517f08c379a000000000000000000000000000000000000000000000000000000000815260040161133e90612fa7565b60405180910390fd5b600061135283610977565b90508073ffffffffffffffffffffffffffffffffffffffff168473ffffffffffffffffffffffffffffffffffffffff1614806113c157508373ffffffffffffffffffffffffffffffffffffffff166113a984610566565b73ffffffffffffffffffffffffffffffffffffffff16145b806113d257506113d1818561105a565b5b91505092915050565b8273ffffffffffffffffffffffffffffffffffffffff166113fb82610977565b73ffffffffffffffffffffffffffffffffffffffff1614611451576040517f08c379a000000000000000000000000000000000000000000000000000000000815260040161144890613039565b60405180910390fd5b600073ffffffffffffffffffffffffffffffffffffffff168273ffffffffffffffffffffffffffffffffffffffff16036114c0576040517f08c379a00000000000000000000000000000000000000000000000000000000081526004016114b7906130cb565b60405180910390fd5b6114cb83838361173e565b6114d6600082611244565b6001600360008573ffffffffffffffffffffffffffffffffffffffff1673ffffffffffffffffffffffffffffffffffffffff1681526020019081526020016000206000828254611526919061311a565b925050819055506001600360008473ffffffffffffffffffffffffffffffffffffffff1673ffffffffffffffffffffffffffffffffffffffff168152602001908152602001600020600082825461157d919061314e565b92505081905550816002600083815260200190815260200160002060006101000a81548173ffffffffffffffffffffffffffffffffffffffff021916908373ffffffffffffffffffffffffffffffffffffffff160217905550808273ffffffffffffffffffffffffffffffffffffffff168473ffffffffffffffffffffffffffffffffffffffff167fddf252ad1be2c89b69c2b068fc378daa952ba7f163c4a11628f55a4df523b3ef60405160405180910390a4505050565b6116418484846113db565b61164d84848484611850565b61168c576040517f08c379a000000000000000000000000000000000000000000000000000000000815260040161168390613216565b60405180910390fd5b50505050565b6001816000016000828254019250508190555050565b600081600001549050919050565b6116d08282604051806020016040528060008152506119d7565b5050565b60007f01ffc9a7000000000000000000000000000000000000000000000000000000007bffffffffffffffffffffffffffffffffffffffffffffffffffffffff1916827bffffffffffffffffffffffffffffffffffffffffffffffffffffffff1916149050919050565b611749838383611a32565b600073ffffffffffffffffffffffffffffffffffffffff168373ffffffffffffffffffffffffffffffffffffffff160361178b5761178681611a37565b6117ca565b8173ffffffffffffffffffffffffffffffffffffffff168373ffffffffffffffffffffffffffffffffffffffff16146117c9576117c88382611a80565b5b5b600073ffffffffffffffffffffffffffffffffffffffff168273ffffffffffffffffffffffffffffffffffffffff160361180c5761180781611bed565b61184b565b8273ffffffffffffffffffffffffffffffffffffffff168273ffffffffffffffffffffffffffffffffffffffff161461184a576118498282611cbe565b5b5b505050565b60006118718473ffffffffffffffffffffffffffffffffffffffff16611d3d565b156119ca578373ffffffffffffffffffffffffffffffffffffffff1663150b7a0261189a61123c565b8786866040518563ffffffff1660e01b81526004016118bc949392919061328b565b6020604051808303816000875af19250505080156118f857506040513d601f19601f820116820180604052508101906118f591906132ec565b60015b61197a573d8060008114611928576040519150601f19603f3d011682016040523d82523d6000602084013e61192d565b606091505b506000815103611972576040517f08c379a000000000000000000000000000000000000000000000000000000000815260040161196990613216565b60405180910390fd5b805181602001fd5b63150b7a0260e01b7bffffffffffffffffffffffffffffffffffffffffffffffffffffffff1916817bffffffffffffffffffffffffffffffffffffffffffffffffffffffff1916149150506119cf565b600190505b949350505050565b6119e18383611d50565b6119ee6000848484611850565b611a2d576040517f08c379a0000000000000000000000000000000000000000000000000000000008152600401611a2490613216565b60405180910390fd5b505050565b505050565b6008805490506009600083815260200190815260200160002081905550600881908060018154018082558091505060019003906000526020600020016000909190919091505550565b60006001611a8d84610a28565b611a97919061311a565b9050600060076000848152602001908152602001600020549050818114611b7c576000600660008673ffffffffffffffffffffffffffffffffffffffff1673ffffffffffffffffffffffffffffffffffffffff168152602001908152602001600020600084815260200190815260200160002054905080600660008773ffffffffffffffffffffffffffffffffffffffff1673ffffffffffffffffffffffffffffffffffffffff168152602001908152602001600020600084815260200190815260200160002081905550816007600083815260200190815260200160002081905550505b6007600084815260200190815260200160002060009055600660008573ffffffffffffffffffffffffffffffffffffffff1673ffffffffffffffffffffffffffffffffffffffff16815260200190815260200160002060008381526020019081526020016000206000905550505050565b60006001600880549050611c01919061311a565b9050600060096000848152602001908152602001600020549050600060088381548110611c3157611c306129d4565b5b906000526020600020015490508060088381548110611c5357611c526129d4565b5b906000526020600020018190555081600960008381526020019081526020016000208190555060096000858152602001908152602001600020600090556008805480611ca257611ca1613319565b5b6001900381819060005260206000200160009055905550505050565b6000611cc983610a28565b905081600660008573ffffffffffffffffffffffffffffffffffffffff1673ffffffffffffffffffffffffffffffffffffffff168152602001908152602001600020600083815260200190815260200160002081905550806007600084815260200190815260200160002081905550505050565b600080823b905060008111915050919050565b600073ffffffffffffffffffffffffffffffffffffffff168273ffffffffffffffffffffffffffffffffffffffff1603611dbf576040517f08c379a0000000000000000000000000000000000000000000000000000000008152600401611db690613394565b60405180910390fd5b611dc8816111d0565b15611e08576040517f08c379a0000000000000000000000000000000000000000000000000000000008152600401611dff90613400565b60405180910390fd5b611e146000838361173e565b6001600360008473ffffffffffffffffffffffffffffffffffffffff1673ffffffffffffffffffffffffffffffffffffffff1681526020019081526020016000206000828254611e64919061314e565b92505081905550816002600083815260200190815260200160002060006101000a81548173ffffffffffffffffffffffffffffffffffffffff021916908373ffffffffffffffffffffffffffffffffffffffff160217905550808273ffffffffffffffffffffffffffffffffffffffff16600073ffffffffffffffffffffffffffffffffffffffff167fddf252ad1be2c89b69c2b068fc378daa952ba7f163c4a11628f55a4df523b3ef60405160405180910390a45050565b6000604051905090565b600080fd5b600080fd5b60007fffffffff0000000000000000000000000000000000000000000000000000000082169050919050565b611f6681611f31565b8114611f7157600080fd5b50565b600081359050611f8381611f5d565b92915050565b600060208284031215611f9f57611f9e611f27565b5b6000611fad84828501611f74565b91505092915050565b60008115159050919050565b611fcb81611fb6565b82525050565b6000602082019050611fe66000830184611fc2565b92915050565b600081519050919050565b600082825260208201905092915050565b60005b8381101561202657808201518184015260208101905061200b565b83811115612035576000848401525b50505050565b6000601f19601f8301169050919050565b600061205782611fec565b6120618185611ff7565b9350612071818560208601612008565b61207a8161203b565b840191505092915050565b6000602082019050818103600083015261209f818461204c565b905092915050565b6000819050919050565b6120ba816120a7565b81146120c557600080fd5b50565b6000813590506120d7816120b1565b92915050565b6000602082840312156120f3576120f2611f27565b5b6000612101848285016120c8565b91505092915050565b600073ffffffffffffffffffffffffffffffffffffffff82169050919050565b60006121358261210a565b9050919050565b6121458161212a565b82525050565b6000602082019050612160600083018461213c565b92915050565b61216f8161212a565b811461217a57600080fd5b50565b60008135905061218c81612166565b92915050565b600080604083850312156121a9576121a8611f27565b5b60006121b78582860161217d565b92505060206121c8858286016120c8565b9150509250929050565b6121db816120a7565b82525050565b60006060820190506121f660008301866121d2565b612203602083018561213c565b8181036040830152612215818461204c565b9050949350505050565b600060208201905061223460008301846121d2565b92915050565b60008060006060848603121561225357612252611f27565b5b60006122618682870161217d565b93505060206122728682870161217d565b9250506040612283868287016120c8565b9150509250925092565b6000602082840312156122a3576122a2611f27565b5b60006122b18482850161217d565b91505092915050565b6122c381611fb6565b81146122ce57600080fd5b50565b6000813590506122e0816122ba565b92915050565b600080604083850312156122fd576122fc611f27565b5b600061230b8582860161217d565b925050602061231c858286016122d1565b9150509250929050565b600080fd5b600080fd5b7f4e487b7100000000000000000000000000000000000000000000000000000000600052604160045260246000fd5b6123688261203b565b810181811067ffffffffffffffff8211171561238757612386612330565b5b80604052505050565b600061239a611f1d565b90506123a6828261235f565b919050565b600067ffffffffffffffff8211156123c6576123c5612330565b5b6123cf8261203b565b9050602081019050919050565b82818337600083830152505050565b60006123fe6123f9846123ab565b612390565b90508281526020810184848401111561241a5761241961232b565b5b6124258482856123dc565b509392505050565b600082601f83011261244257612441612326565b5b81356124528482602086016123eb565b91505092915050565b6000806000806080858703121561247557612474611f27565b5b60006124838782880161217d565b94505060206124948782880161217d565b93505060406124a5878288016120c8565b925050606085013567ffffffffffffffff8111156124c6576124c5611f2c565b5b6124d28782880161242d565b91505092959194509250565b600067ffffffffffffffff8211156124f9576124f8612330565b5b6125028261203b565b9050602081019050919050565b600061252261251d846124de565b612390565b90508281526020810184848401111561253e5761253d61232b565b5b6125498482856123dc565b509392505050565b600082601f83011261256657612565612326565b5b813561257684826020860161250f565b91505092915050565b60006020828403121561259557612594611f27565b5b600082013567ffffffffffffffff8111156125b3576125b2611f2c565b5b6125bf84828501612551565b91505092915050565b600080604083850312156125df576125de611f27565b5b60006125ed8582860161217d565b92505060206125fe8582860161217d565b9150509250929050565b7f4e487b7100000000000000000000000000000000000000000000000000000000600052602260045260246000fd5b6000600282049050600182168061264f57607f821691505b60208210810361266257612661612608565b5b50919050565b7f4552433732313a20617070726f76656420717565727920666f72206e6f6e657860008201527f697374656e7420746f6b656e0000000000000000000000000000000000000000602082015250565b60006126c4602c83611ff7565b91506126cf82612668565b604082019050919050565b600060208201905081810360008301526126f3816126b7565b9050919050565b7f4552433732313a20617070726f76616c20746f2063757272656e74206f776e6560008201527f7200000000000000000000000000000000000000000000000000000000000000602082015250565b6000612756602183611ff7565b9150612761826126fa565b604082019050919050565b6000602082019050818103600083015261278581612749565b9050919050565b7f4552433732313a20617070726f76652063616c6c6572206973206e6f74206f7760008201527f6e6572206e6f7220617070726f76656420666f7220616c6c0000000000000000602082015250565b60006127e8603883611ff7565b91506127f38261278c565b604082019050919050565b60006020820190508181036000830152612817816127db565b9050919050565b7f4552433732313a207472616e736665722063616c6c6572206973206e6f74206f60008201527f776e6572206e6f7220617070726f766564000000000000000000000000000000602082015250565b600061287a603183611ff7565b91506128858261281e565b604082019050919050565b600060208201905081810360008301526128a98161286d565b9050919050565b7f455243373231456e756d657261626c653a206f776e657220696e646578206f7560008201527f74206f6620626f756e6473000000000000000000000000000000000000000000602082015250565b600061290c602b83611ff7565b9150612917826128b0565b604082019050919050565b6000602082019050818103600083015261293b816128ff565b9050919050565b7f455243373231456e756d657261626c653a20676c6f62616c20696e646578206f60008201527f7574206f6620626f756e64730000000000000000000000000000000000000000602082015250565b600061299e602c83611ff7565b91506129a982612942565b604082019050919050565b600060208201905081810360008301526129cd81612991565b9050919050565b7f4e487b7100000000000000000000000000000000000000000000000000000000600052603260045260246000fd5b7f4552433732313a206f776e657220717565727920666f72206e6f6e657869737460008201527f656e7420746f6b656e0000000000000000000000000000000000000000000000602082015250565b6000612a5f602983611ff7565b9150612a6a82612a03565b604082019050919050565b60006020820190508181036000830152612a8e81612a52565b9050919050565b7f4552433732313a2062616c616e636520717565727920666f7220746865207a6560008201527f726f206164647265737300000000000000000000000000000000000000000000602082015250565b6000612af1602a83611ff7565b9150612afc82612a95565b604082019050919050565b60006020820190508181036000830152612b2081612ae4565b9050919050565b7f596f75206d757374206f776e2074686973204e465420696e206f72646572207460008201527f6f20726573656c6c206974000000000000000000000000000000000000000000602082015250565b6000612b83602b83611ff7565b9150612b8e82612b27565b604082019050919050565b60006020820190508181036000830152612bb281612b76565b9050919050565b7f4552433732313a20617070726f766520746f2063616c6c657200000000000000600082015250565b6000612bef601983611ff7565b9150612bfa82612bb9565b602082019050919050565b60006020820190508181036000830152612c1e81612be2565b9050919050565b7f45524337323155524953746f726167653a2055524920717565727920666f722060008201527f6e6f6e6578697374656e7420746f6b656e000000000000000000000000000000602082015250565b6000612c81603183611ff7565b9150612c8c82612c25565b604082019050919050565b60006020820190508181036000830152612cb081612c74565b9050919050565b60008190508160005260206000209050919050565b60006020601f8301049050919050565b600082821b905092915050565b600060088302612d197fffffffffffffffffffffffffffffffffffffffffffffffffffffffffffffffff82612cdc565b612d238683612cdc565b95508019841693508086168417925050509392505050565b6000819050919050565b6000612d60612d5b612d56846120a7565b612d3b565b6120a7565b9050919050565b6000819050919050565b612d7a83612d45565b612d8e612d8682612d67565b848454612ce9565b825550505050565b600090565b612da3612d96565b612dae818484612d71565b505050565b5b81811015612dd257612dc7600082612d9b565b600181019050612db4565b5050565b601f821115612e1757612de881612cb7565b612df184612ccc565b81016020851015612e00578190505b612e14612e0c85612ccc565b830182612db3565b50505b505050565b600082821c905092915050565b6000612e3a60001984600802612e1c565b1980831691505092915050565b6000612e538383612e29565b9150826002028217905092915050565b612e6c82611fec565b67ffffffffffffffff811115612e8557612e84612330565b5b612e8f8254612637565b612e9a828285612dd6565b600060209050601f831160018114612ecd5760008415612ebb578287015190505b612ec58582612e47565b865550612f2d565b601f198416612edb86612cb7565b60005b82811015612f0357848901518255600182019150602085019450602081019050612ede565b86831015612f205784890151612f1c601f891682612e29565b8355505b6001600288020188555050505b505050505050565b7f4552433732313a206f70657261746f7220717565727920666f72206e6f6e657860008201527f697374656e7420746f6b656e0000000000000000000000000000000000000000602082015250565b6000612f91602c83611ff7565b9150612f9c82612f35565b604082019050919050565b60006020820190508181036000830152612fc081612f84565b9050919050565b7f4552433732313a207472616e73666572206f6620746f6b656e2074686174206960008201527f73206e6f74206f776e0000000000000000000000000000000000000000000000602082015250565b6000613023602983611ff7565b915061302e82612fc7565b604082019050919050565b6000602082019050818103600083015261305281613016565b9050919050565b7f4552433732313a207472616e7366657220746f20746865207a65726f2061646460008201527f7265737300000000000000000000000000000000000000000000000000000000602082015250565b60006130b5602483611ff7565b91506130c082613059565b604082019050919050565b600060208201905081810360008301526130e4816130a8565b9050919050565b7f4e487b7100000000000000000000000000000000000000000000000000000000600052601160045260246000fd5b6000613125826120a7565b9150613130836120a7565b925082821015613143576131426130eb565b5b828203905092915050565b6000613159826120a7565b9150613164836120a7565b9250827fffffffffffffffffffffffffffffffffffffffffffffffffffffffffffffffff03821115613199576131986130eb565b5b828201905092915050565b7f4552433732313a207472616e7366657220746f206e6f6e20455243373231526560008201527f63656976657220696d706c656d656e7465720000000000000000000000000000602082015250565b6000613200603283611ff7565b915061320b826131a4565b604082019050919050565b6000602082019050818103600083015261322f816131f3565b9050919050565b600081519050919050565b600082825260208201905092915050565b600061325d82613236565b6132678185613241565b9350613277818560208601612008565b6132808161203b565b840191505092915050565b60006080820190506132a0600083018761213c565b6132ad602083018661213c565b6132ba60408301856121d2565b81810360608301526132cc8184613252565b905095945050505050565b6000815190506132e681611f5d565b92915050565b60006020828403121561330257613301611f27565b5b6000613310848285016132d7565b91505092915050565b7f4e487b7100000000000000000000000000000000000000000000000000000000600052603160045260246000fd5b7f4552433732313a206d696e7420746f20746865207a65726f2061646472657373600082015250565b600061337e602083611ff7565b915061338982613348565b602082019050919050565b600060208201905081810360008301526133ad81613371565b9050919050565b7f4552433732313a20746f6b656e20616c7265616479206d696e74656400000000600082015250565b60006133ea601c83611ff7565b91506133f5826133b4565b602082019050919050565b60006020820190508181036000830152613419816133dd565b905091905056fea2646970667358221220c33a34ac31f3564895e6fa0da9c183792efeeacb68a8c265fb3f563a2f274fec64736f6c634300080f0033",
  "immutableReferences": {},
  "source": "// SPDX-License-Identifier: MIT\npragma solidity ^0.8.0;\n\nimport \"@openzeppelin/contracts/token/ERC721/ERC721.sol\";\nimport \"@openzeppelin/contracts/token/ERC721/extensions/ERC721Enumerable.sol\";\nimport \"@openzeppelin/contracts/token/ERC721/extensions/ERC721URIStorage.sol\";\nimport \"@openzeppelin/contracts/utils/Counters.sol\";\n\n\ncontract ArtToken is ERC721Enumerable{\n  using Counters for Counters.Counter;\n\n  Counters.Counter private _tokenIds;\n  address public marketplace;\n\n  struct Item {\n    uint256 id;\n    address creator;\n    string uri;//metadata url\n  }\n\n  mapping(uint256 => Item) public Items; //id => Item\n\n  constructor () ERC721(\"ArtToken\", \"ARTK\") {}\n\n  function mint(string memory uri) public returns (uint256){\n    _tokenIds.increment();\n    uint256 newItemId = _tokenIds.current();\n    _safeMint(msg.sender, newItemId);\n    approve(marketplace, newItemId);\n\n    Items[newItemId] = Item({\n      id: newItemId, \n      creator: msg.sender,\n      uri: uri\n    });\n\n    return newItemId;\n  }\n\n\n  function tokenURI(uint256 tokenId) public view override returns (string memory) {\n    require(_exists(tokenId), \"ERC721URIStorage: URI query for nonexistent token\");\n    return Items[tokenId].uri;\n  }\n\n  function setMarketplace(address market) public {\n    //require(msg.sender ==);\n    marketplace = market;\n  }\n\n  function giveResaleApproval(uint256 tokenId) public {\n    require(ownerOf(tokenId) == msg.sender, \"You must own this NFT in order to resell it\");\n    setApprovalForAll(marketplace, true);\n    return;\n  }\n\n}",
  "sourcePath": "/home/jimmy/NFT-Marketplace/contracts/ArtToken.sol",
  "compiler": {
    "name": "solc",
    "version": "0.8.15+commit.e14f2714.Emscripten.clang"
  },
  "schemaVersion": "3.4.6",
  "updatedAt": "2022-07-07T08:22:41.235Z",
  "networkType": "ethereum",
  "devdoc": {
    "kind": "dev",
    "methods": {
      "approve(address,uint256)": {
        "details": "See {IERC721-approve}."
      },
      "balanceOf(address)": {
        "details": "See {IERC721-balanceOf}."
      },
      "getApproved(uint256)": {
        "details": "See {IERC721-getApproved}."
      },
      "isApprovedForAll(address,address)": {
        "details": "See {IERC721-isApprovedForAll}."
      },
      "name()": {
        "details": "See {IERC721Metadata-name}."
      },
      "ownerOf(uint256)": {
        "details": "See {IERC721-ownerOf}."
      },
      "safeTransferFrom(address,address,uint256)": {
        "details": "See {IERC721-safeTransferFrom}."
      },
      "safeTransferFrom(address,address,uint256,bytes)": {
        "details": "See {IERC721-safeTransferFrom}."
      },
      "setApprovalForAll(address,bool)": {
        "details": "See {IERC721-setApprovalForAll}."
      },
      "supportsInterface(bytes4)": {
        "details": "See {IERC165-supportsInterface}."
      },
      "symbol()": {
        "details": "See {IERC721Metadata-symbol}."
      },
      "tokenByIndex(uint256)": {
        "details": "See {IERC721Enumerable-tokenByIndex}."
      },
      "tokenOfOwnerByIndex(address,uint256)": {
        "details": "See {IERC721Enumerable-tokenOfOwnerByIndex}."
      },
      "tokenURI(uint256)": {
        "details": "See {IERC721Metadata-tokenURI}."
      },
      "totalSupply()": {
        "details": "See {IERC721Enumerable-totalSupply}."
      },
      "transferFrom(address,address,uint256)": {
        "details": "See {IERC721-transferFrom}."
      }
    },
    "version": 1
  },
  "userdoc": {
    "kind": "user",
    "methods": {},
    "version": 1
  }
}