{
  "contractName": "ArtToken",
  "abi": [
    {
      "inputs": [],
      "stateMutability": "nonpayable",
      "type": "constructor"
    },
    {
      "anonymous": false,
      "inputs": [
        {
          "indexed": true,
          "internalType": "address",
          "name": "owner",
          "type": "address"
        },
        {
          "indexed": true,
          "internalType": "address",
          "name": "approved",
          "type": "address"
        },
        {
          "indexed": true,
          "internalType": "uint256",
          "name": "tokenId",
          "type": "uint256"
        }
      ],
      "name": "Approval",
      "type": "event"
    },
    {
      "anonymous": false,
      "inputs": [
        {
          "indexed": true,
          "internalType": "address",
          "name": "owner",
          "type": "address"
        },
        {
          "indexed": true,
          "internalType": "address",
          "name": "operator",
          "type": "address"
        },
        {
          "indexed": false,
          "internalType": "bool",
          "name": "approved",
          "type": "bool"
        }
      ],
      "name": "ApprovalForAll",
      "type": "event"
    },
    {
      "anonymous": false,
      "inputs": [
        {
          "indexed": true,
          "internalType": "address",
          "name": "from",
          "type": "address"
        },
        {
          "indexed": true,
          "internalType": "address",
          "name": "to",
          "type": "address"
        },
        {
          "indexed": true,
          "internalType": "uint256",
          "name": "tokenId",
          "type": "uint256"
        }
      ],
      "name": "Transfer",
      "type": "event"
    },
    {
      "inputs": [
        {
          "internalType": "uint256",
          "name": "",
          "type": "uint256"
        }
      ],
      "name": "Items",
      "outputs": [
        {
          "internalType": "uint256",
          "name": "id",
          "type": "uint256"
        },
        {
          "internalType": "address",
          "name": "creator",
          "type": "address"
        },
        {
          "internalType": "string",
          "name": "uri",
          "type": "string"
        }
      ],
      "stateMutability": "view",
      "type": "function",
      "constant": true
    },
    {
      "inputs": [
        {
          "internalType": "address",
          "name": "to",
          "type": "address"
        },
        {
          "internalType": "uint256",
          "name": "tokenId",
          "type": "uint256"
        }
      ],
      "name": "approve",
      "outputs": [],
      "stateMutability": "nonpayable",
      "type": "function"
    },
    {
      "inputs": [
        {
          "internalType": "address",
          "name": "owner",
          "type": "address"
        }
      ],
      "name": "balanceOf",
      "outputs": [
        {
          "internalType": "uint256",
          "name": "",
          "type": "uint256"
        }
      ],
      "stateMutability": "view",
      "type": "function",
      "constant": true
    },
    {
      "inputs": [
        {
          "internalType": "uint256",
          "name": "tokenId",
          "type": "uint256"
        }
      ],
      "name": "getApproved",
      "outputs": [
        {
          "internalType": "address",
          "name": "",
          "type": "address"
        }
      ],
      "stateMutability": "view",
      "type": "function",
      "constant": true
    },
    {
      "inputs": [
        {
          "internalType": "address",
          "name": "owner",
          "type": "address"
        },
        {
          "internalType": "address",
          "name": "operator",
          "type": "address"
        }
      ],
      "name": "isApprovedForAll",
      "outputs": [
        {
          "internalType": "bool",
          "name": "",
          "type": "bool"
        }
      ],
      "stateMutability": "view",
      "type": "function",
      "constant": true
    },
    {
      "inputs": [],
      "name": "marketplace",
      "outputs": [
        {
          "internalType": "address",
          "name": "",
          "type": "address"
        }
      ],
      "stateMutability": "view",
      "type": "function",
      "constant": true
    },
    {
      "inputs": [],
      "name": "name",
      "outputs": [
        {
          "internalType": "string",
          "name": "",
          "type": "string"
        }
      ],
      "stateMutability": "view",
      "type": "function",
      "constant": true
    },
    {
      "inputs": [
        {
          "internalType": "uint256",
          "name": "tokenId",
          "type": "uint256"
        }
      ],
      "name": "ownerOf",
      "outputs": [
        {
          "internalType": "address",
          "name": "",
          "type": "address"
        }
      ],
      "stateMutability": "view",
      "type": "function",
      "constant": true
    },
    {
      "inputs": [
        {
          "internalType": "address",
          "name": "from",
          "type": "address"
        },
        {
          "internalType": "address",
          "name": "to",
          "type": "address"
        },
        {
          "internalType": "uint256",
          "name": "tokenId",
          "type": "uint256"
        }
      ],
      "name": "safeTransferFrom",
      "outputs": [],
      "stateMutability": "nonpayable",
      "type": "function"
    },
    {
      "inputs": [
        {
          "internalType": "address",
          "name": "from",
          "type": "address"
        },
        {
          "internalType": "address",
          "name": "to",
          "type": "address"
        },
        {
          "internalType": "uint256",
          "name": "tokenId",
          "type": "uint256"
        },
        {
          "internalType": "bytes",
          "name": "_data",
          "type": "bytes"
        }
      ],
      "name": "safeTransferFrom",
      "outputs": [],
      "stateMutability": "nonpayable",
      "type": "function"
    },
    {
      "inputs": [
        {
          "internalType": "address",
          "name": "operator",
          "type": "address"
        },
        {
          "internalType": "bool",
          "name": "approved",
          "type": "bool"
        }
      ],
      "name": "setApprovalForAll",
      "outputs": [],
      "stateMutability": "nonpayable",
      "type": "function"
    },
    {
      "inputs": [
        {
          "internalType": "bytes4",
          "name": "interfaceId",
          "type": "bytes4"
        }
      ],
      "name": "supportsInterface",
      "outputs": [
        {
          "internalType": "bool",
          "name": "",
          "type": "bool"
        }
      ],
      "stateMutability": "view",
      "type": "function",
      "constant": true
    },
    {
      "inputs": [],
      "name": "symbol",
      "outputs": [
        {
          "internalType": "string",
          "name": "",
          "type": "string"
        }
      ],
      "stateMutability": "view",
      "type": "function",
      "constant": true
    },
    {
      "inputs": [
        {
          "internalType": "uint256",
          "name": "index",
          "type": "uint256"
        }
      ],
      "name": "tokenByIndex",
      "outputs": [
        {
          "internalType": "uint256",
          "name": "",
          "type": "uint256"
        }
      ],
      "stateMutability": "view",
      "type": "function",
      "constant": true
    },
    {
      "inputs": [
        {
          "internalType": "address",
          "name": "owner",
          "type": "address"
        },
        {
          "internalType": "uint256",
          "name": "index",
          "type": "uint256"
        }
      ],
      "name": "tokenOfOwnerByIndex",
      "outputs": [
        {
          "internalType": "uint256",
          "name": "",
          "type": "uint256"
        }
      ],
      "stateMutability": "view",
      "type": "function",
      "constant": true
    },
    {
      "inputs": [],
      "name": "totalSupply",
      "outputs": [
        {
          "internalType": "uint256",
          "name": "",
          "type": "uint256"
        }
      ],
      "stateMutability": "view",
      "type": "function",
      "constant": true
    },
    {
      "inputs": [
        {
          "internalType": "address",
          "name": "from",
          "type": "address"
        },
        {
          "internalType": "address",
          "name": "to",
          "type": "address"
        },
        {
          "internalType": "uint256",
          "name": "tokenId",
          "type": "uint256"
        }
      ],
      "name": "transferFrom",
      "outputs": [],
      "stateMutability": "nonpayable",
      "type": "function"
    },
    {
      "inputs": [
        {
          "internalType": "string",
          "name": "uri",
          "type": "string"
        }
      ],
      "name": "mint",
      "outputs": [
        {
          "internalType": "uint256",
          "name": "",
          "type": "uint256"
        }
      ],
      "stateMutability": "nonpayable",
      "type": "function"
    },
    {
      "inputs": [
        {
          "internalType": "uint256",
          "name": "tokenId",
          "type": "uint256"
        }
      ],
      "name": "tokenURI",
      "outputs": [
        {
          "internalType": "string",
          "name": "",
          "type": "string"
        }
      ],
      "stateMutability": "view",
      "type": "function",
      "constant": true
    },
    {
      "inputs": [
        {
          "internalType": "address",
          "name": "market",
          "type": "address"
        }
      ],
      "name": "setMarketplace",
      "outputs": [],
      "stateMutability": "nonpayable",
      "type": "function"
    }
  ],
  "bytecode": "0x60806040523480156200001157600080fd5b506040518060400160405280600881526020017f417274546f6b656e0000000000000000000000000000000000000000000000008152506040518060400160405280600481526020017f4152544b0000000000000000000000000000000000000000000000000000000081525081600090816200008f919062000324565b508060019081620000a1919062000324565b5050506200040b565b600081519050919050565b7f4e487b7100000000000000000000000000000000000000000000000000000000600052604160045260246000fd5b7f4e487b7100000000000000000000000000000000000000000000000000000000600052602260045260246000fd5b600060028204905060018216806200012c57607f821691505b602082108103620001425762000141620000e4565b5b50919050565b60008190508160005260206000209050919050565b60006020601f8301049050919050565b600082821b905092915050565b600060088302620001ac7fffffffffffffffffffffffffffffffffffffffffffffffffffffffffffffffff826200016d565b620001b886836200016d565b95508019841693508086168417925050509392505050565b6000819050919050565b6000819050919050565b600062000205620001ff620001f984620001d0565b620001da565b620001d0565b9050919050565b6000819050919050565b6200022183620001e4565b6200023962000230826200020c565b8484546200017a565b825550505050565b600090565b6200025062000241565b6200025d81848462000216565b505050565b5b8181101562000285576200027960008262000246565b60018101905062000263565b5050565b601f821115620002d4576200029e8162000148565b620002a9846200015d565b81016020851015620002b9578190505b620002d1620002c8856200015d565b83018262000262565b50505b505050565b600082821c905092915050565b6000620002f960001984600802620002d9565b1980831691505092915050565b6000620003148383620002e6565b9150826002028217905092915050565b6200032f82620000aa565b67ffffffffffffffff8111156200034b576200034a620000b5565b5b62000357825462000113565b6200036482828562000289565b600060209050601f8311600181146200039c576000841562000387578287015190505b62000393858262000306565b86555062000403565b601f198416620003ac8662000148565b60005b82811015620003d657848901518255600182019150602085019450602081019050620003af565b86831015620003f65784890151620003f2601f891682620002e6565b8355505b6001600288020188555050505b505050505050565b6132f7806200041b6000396000f3fe608060405234801561001057600080fd5b506004361061012c5760003560e01c80636352211e116100ad578063abc8c7af11610071578063abc8c7af14610369578063b88d4fde14610387578063c87b56dd146103a3578063d85d3d27146103d3578063e985e9c5146104035761012c565b80636352211e146102b357806370a08231146102e357806373ad6c2d1461031357806395d89b411461032f578063a22cb4651461034d5761012c565b806318160ddd116100f457806318160ddd146101fd57806323b872dd1461021b5780632f745c591461023757806342842e0e146102675780634f6ccce7146102835761012c565b806301ffc9a71461013157806306fdde0314610161578063081812fc1461017f578063095ea7b3146101af57806317b47cc4146101cb575b600080fd5b61014b60048036038101906101469190611ebc565b610433565b6040516101589190611f04565b60405180910390f35b6101696104ad565b6040516101769190611fb8565b60405180910390f35b61019960048036038101906101949190612010565b61053f565b6040516101a6919061207e565b60405180910390f35b6101c960048036038101906101c491906120c5565b6105c4565b005b6101e560048036038101906101e09190612010565b6106db565b6040516101f493929190612114565b60405180910390f35b6102056107ad565b6040516102129190612152565b60405180910390f35b6102356004803603810190610230919061216d565b6107ba565b005b610251600480360381019061024c91906120c5565b61081a565b60405161025e9190612152565b60405180910390f35b610281600480360381019061027c919061216d565b6108bf565b005b61029d60048036038101906102989190612010565b6108df565b6040516102aa9190612152565b60405180910390f35b6102cd60048036038101906102c89190612010565b610950565b6040516102da919061207e565b60405180910390f35b6102fd60048036038101906102f891906121c0565b610a01565b60405161030a9190612152565b60405180910390f35b61032d600480360381019061032891906121c0565b610ab8565b005b610337610afc565b6040516103449190611fb8565b60405180910390f35b61036760048036038101906103629190612219565b610b8e565b005b610371610d0e565b60405161037e919061207e565b60405180910390f35b6103a1600480360381019061039c919061238e565b610d34565b005b6103bd60048036038101906103b89190612010565b610d96565b6040516103ca9190611fb8565b60405180910390f35b6103ed60048036038101906103e891906124b2565b610e86565b6040516103fa9190612152565b60405180910390f35b61041d600480360381019061041891906124fb565b610f8d565b60405161042a9190611f04565b60405180910390f35b60007f780e9d63000000000000000000000000000000000000000000000000000000007bffffffffffffffffffffffffffffffffffffffffffffffffffffffff1916827bffffffffffffffffffffffffffffffffffffffffffffffffffffffff191614806104a657506104a582611021565b5b9050919050565b6060600080546104bc9061256a565b80601f01602080910402602001604051908101604052809291908181526020018280546104e89061256a565b80156105355780601f1061050a57610100808354040283529160200191610535565b820191906000526020600020905b81548152906001019060200180831161051857829003601f168201915b5050505050905090565b600061054a82611103565b610589576040517f08c379a00000000000000000000000000000000000000000000000000000000081526004016105809061260d565b60405180910390fd5b6004600083815260200190815260200160002060009054906101000a900473ffffffffffffffffffffffffffffffffffffffff169050919050565b60006105cf82610950565b90508073ffffffffffffffffffffffffffffffffffffffff168373ffffffffffffffffffffffffffffffffffffffff160361063f576040517f08c379a00000000000000000000000000000000000000000000000000000000081526004016106369061269f565b60405180910390fd5b8073ffffffffffffffffffffffffffffffffffffffff1661065e61116f565b73ffffffffffffffffffffffffffffffffffffffff16148061068d575061068c8161068761116f565b610f8d565b5b6106cc576040517f08c379a00000000000000000000000000000000000000000000000000000000081526004016106c390612731565b60405180910390fd5b6106d68383611177565b505050565b600c6020528060005260406000206000915090508060000154908060010160009054906101000a900473ffffffffffffffffffffffffffffffffffffffff169080600201805461072a9061256a565b80601f01602080910402602001604051908101604052809291908181526020018280546107569061256a565b80156107a35780601f10610778576101008083540402835291602001916107a3565b820191906000526020600020905b81548152906001019060200180831161078657829003601f168201915b5050505050905083565b6000600880549050905090565b6107cb6107c561116f565b82611230565b61080a576040517f08c379a0000000000000000000000000000000000000000000000000000000008152600401610801906127c3565b60405180910390fd5b61081583838361130e565b505050565b600061082583610a01565b8210610866576040517f08c379a000000000000000000000000000000000000000000000000000000000815260040161085d90612855565b60405180910390fd5b600660008473ffffffffffffffffffffffffffffffffffffffff1673ffffffffffffffffffffffffffffffffffffffff168152602001908152602001600020600083815260200190815260200160002054905092915050565b6108da83838360405180602001604052806000815250610d34565b505050565b60006108e96107ad565b821061092a576040517f08c379a0000000000000000000000000000000000000000000000000000000008152600401610921906128e7565b60405180910390fd5b6008828154811061093e5761093d612907565b5b90600052602060002001549050919050565b6000806002600084815260200190815260200160002060009054906101000a900473ffffffffffffffffffffffffffffffffffffffff169050600073ffffffffffffffffffffffffffffffffffffffff168173ffffffffffffffffffffffffffffffffffffffff16036109f8576040517f08c379a00000000000000000000000000000000000000000000000000000000081526004016109ef906129a8565b60405180910390fd5b80915050919050565b60008073ffffffffffffffffffffffffffffffffffffffff168273ffffffffffffffffffffffffffffffffffffffff1603610a71576040517f08c379a0000000000000000000000000000000000000000000000000000000008152600401610a6890612a3a565b60405180910390fd5b600360008373ffffffffffffffffffffffffffffffffffffffff1673ffffffffffffffffffffffffffffffffffffffff168152602001908152602001600020549050919050565b80600b60006101000a81548173ffffffffffffffffffffffffffffffffffffffff021916908373ffffffffffffffffffffffffffffffffffffffff16021790555050565b606060018054610b0b9061256a565b80601f0160208091040260200160405190810160405280929190818152602001828054610b379061256a565b8015610b845780601f10610b5957610100808354040283529160200191610b84565b820191906000526020600020905b815481529060010190602001808311610b6757829003601f168201915b5050505050905090565b610b9661116f565b73ffffffffffffffffffffffffffffffffffffffff168273ffffffffffffffffffffffffffffffffffffffff1603610c03576040517f08c379a0000000000000000000000000000000000000000000000000000000008152600401610bfa90612aa6565b60405180910390fd5b8060056000610c1061116f565b73ffffffffffffffffffffffffffffffffffffffff1673ffffffffffffffffffffffffffffffffffffffff16815260200190815260200160002060008473ffffffffffffffffffffffffffffffffffffffff1673ffffffffffffffffffffffffffffffffffffffff16815260200190815260200160002060006101000a81548160ff0219169083151502179055508173ffffffffffffffffffffffffffffffffffffffff16610cbd61116f565b73ffffffffffffffffffffffffffffffffffffffff167f17307eab39ab6107e8899845ad3d59bd9653f200f220920489ca2b5937696c3183604051610d029190611f04565b60405180910390a35050565b600b60009054906101000a900473ffffffffffffffffffffffffffffffffffffffff1681565b610d45610d3f61116f565b83611230565b610d84576040517f08c379a0000000000000000000000000000000000000000000000000000000008152600401610d7b906127c3565b60405180910390fd5b610d9084848484611569565b50505050565b6060610da182611103565b610de0576040517f08c379a0000000000000000000000000000000000000000000000000000000008152600401610dd790612b38565b60405180910390fd5b600c60008381526020019081526020016000206002018054610e019061256a565b80601f0160208091040260200160405190810160405280929190818152602001828054610e2d9061256a565b8015610e7a5780601f10610e4f57610100808354040283529160200191610e7a565b820191906000526020600020905b815481529060010190602001808311610e5d57829003601f168201915b50505050509050919050565b6000610e92600a6115c5565b6000610e9e600a6115db565b9050610eaa33826115e9565b610ed6600b60009054906101000a900473ffffffffffffffffffffffffffffffffffffffff16826105c4565b60405180606001604052808281526020013373ffffffffffffffffffffffffffffffffffffffff16815260200184815250600c60008381526020019081526020016000206000820151816000015560208201518160010160006101000a81548173ffffffffffffffffffffffffffffffffffffffff021916908373ffffffffffffffffffffffffffffffffffffffff1602179055506040820151816002019081610f809190612d04565b5090505080915050919050565b6000600560008473ffffffffffffffffffffffffffffffffffffffff1673ffffffffffffffffffffffffffffffffffffffff16815260200190815260200160002060008373ffffffffffffffffffffffffffffffffffffffff1673ffffffffffffffffffffffffffffffffffffffff16815260200190815260200160002060009054906101000a900460ff16905092915050565b60007f80ac58cd000000000000000000000000000000000000000000000000000000007bffffffffffffffffffffffffffffffffffffffffffffffffffffffff1916827bffffffffffffffffffffffffffffffffffffffffffffffffffffffff191614806110ec57507f5b5e139f000000000000000000000000000000000000000000000000000000007bffffffffffffffffffffffffffffffffffffffffffffffffffffffff1916827bffffffffffffffffffffffffffffffffffffffffffffffffffffffff1916145b806110fc57506110fb82611607565b5b9050919050565b60008073ffffffffffffffffffffffffffffffffffffffff166002600084815260200190815260200160002060009054906101000a900473ffffffffffffffffffffffffffffffffffffffff1673ffffffffffffffffffffffffffffffffffffffff1614159050919050565b600033905090565b816004600083815260200190815260200160002060006101000a81548173ffffffffffffffffffffffffffffffffffffffff021916908373ffffffffffffffffffffffffffffffffffffffff160217905550808273ffffffffffffffffffffffffffffffffffffffff166111ea83610950565b73ffffffffffffffffffffffffffffffffffffffff167f8c5be1e5ebec7d5bd14f71427d1e84f3dd0314c0f7b2291e5b200ac8c7c3b92560405160405180910390a45050565b600061123b82611103565b61127a576040517f08c379a000000000000000000000000000000000000000000000000000000000815260040161127190612e48565b60405180910390fd5b600061128583610950565b90508073ffffffffffffffffffffffffffffffffffffffff168473ffffffffffffffffffffffffffffffffffffffff1614806112f457508373ffffffffffffffffffffffffffffffffffffffff166112dc8461053f565b73ffffffffffffffffffffffffffffffffffffffff16145b8061130557506113048185610f8d565b5b91505092915050565b8273ffffffffffffffffffffffffffffffffffffffff1661132e82610950565b73ffffffffffffffffffffffffffffffffffffffff1614611384576040517f08c379a000000000000000000000000000000000000000000000000000000000815260040161137b90612eda565b60405180910390fd5b600073ffffffffffffffffffffffffffffffffffffffff168273ffffffffffffffffffffffffffffffffffffffff16036113f3576040517f08c379a00000000000000000000000000000000000000000000000000000000081526004016113ea90612f6c565b60405180910390fd5b6113fe838383611671565b611409600082611177565b6001600360008573ffffffffffffffffffffffffffffffffffffffff1673ffffffffffffffffffffffffffffffffffffffff16815260200190815260200160002060008282546114599190612fbb565b925050819055506001600360008473ffffffffffffffffffffffffffffffffffffffff1673ffffffffffffffffffffffffffffffffffffffff16815260200190815260200160002060008282546114b09190612fef565b92505081905550816002600083815260200190815260200160002060006101000a81548173ffffffffffffffffffffffffffffffffffffffff021916908373ffffffffffffffffffffffffffffffffffffffff160217905550808273ffffffffffffffffffffffffffffffffffffffff168473ffffffffffffffffffffffffffffffffffffffff167fddf252ad1be2c89b69c2b068fc378daa952ba7f163c4a11628f55a4df523b3ef60405160405180910390a4505050565b61157484848461130e565b61158084848484611783565b6115bf576040517f08c379a00000000000000000000000000000000000000000000000000000000081526004016115b6906130b7565b60405180910390fd5b50505050565b6001816000016000828254019250508190555050565b600081600001549050919050565b61160382826040518060200160405280600081525061190a565b5050565b60007f01ffc9a7000000000000000000000000000000000000000000000000000000007bffffffffffffffffffffffffffffffffffffffffffffffffffffffff1916827bffffffffffffffffffffffffffffffffffffffffffffffffffffffff1916149050919050565b61167c838383611965565b600073ffffffffffffffffffffffffffffffffffffffff168373ffffffffffffffffffffffffffffffffffffffff16036116be576116b98161196a565b6116fd565b8173ffffffffffffffffffffffffffffffffffffffff168373ffffffffffffffffffffffffffffffffffffffff16146116fc576116fb83826119b3565b5b5b600073ffffffffffffffffffffffffffffffffffffffff168273ffffffffffffffffffffffffffffffffffffffff160361173f5761173a81611b20565b61177e565b8273ffffffffffffffffffffffffffffffffffffffff168273ffffffffffffffffffffffffffffffffffffffff161461177d5761177c8282611bf1565b5b5b505050565b60006117a48473ffffffffffffffffffffffffffffffffffffffff16611c70565b156118fd578373ffffffffffffffffffffffffffffffffffffffff1663150b7a026117cd61116f565b8786866040518563ffffffff1660e01b81526004016117ef949392919061312c565b6020604051808303816000875af192505050801561182b57506040513d601f19601f82011682018060405250810190611828919061318d565b60015b6118ad573d806000811461185b576040519150601f19603f3d011682016040523d82523d6000602084013e611860565b606091505b5060008151036118a5576040517f08c379a000000000000000000000000000000000000000000000000000000000815260040161189c906130b7565b60405180910390fd5b805181602001fd5b63150b7a0260e01b7bffffffffffffffffffffffffffffffffffffffffffffffffffffffff1916817bffffffffffffffffffffffffffffffffffffffffffffffffffffffff191614915050611902565b600190505b949350505050565b6119148383611c83565b6119216000848484611783565b611960576040517f08c379a0000000000000000000000000000000000000000000000000000000008152600401611957906130b7565b60405180910390fd5b505050565b505050565b6008805490506009600083815260200190815260200160002081905550600881908060018154018082558091505060019003906000526020600020016000909190919091505550565b600060016119c084610a01565b6119ca9190612fbb565b9050600060076000848152602001908152602001600020549050818114611aaf576000600660008673ffffffffffffffffffffffffffffffffffffffff1673ffffffffffffffffffffffffffffffffffffffff168152602001908152602001600020600084815260200190815260200160002054905080600660008773ffffffffffffffffffffffffffffffffffffffff1673ffffffffffffffffffffffffffffffffffffffff168152602001908152602001600020600084815260200190815260200160002081905550816007600083815260200190815260200160002081905550505b6007600084815260200190815260200160002060009055600660008573ffffffffffffffffffffffffffffffffffffffff1673ffffffffffffffffffffffffffffffffffffffff16815260200190815260200160002060008381526020019081526020016000206000905550505050565b60006001600880549050611b349190612fbb565b9050600060096000848152602001908152602001600020549050600060088381548110611b6457611b63612907565b5b906000526020600020015490508060088381548110611b8657611b85612907565b5b906000526020600020018190555081600960008381526020019081526020016000208190555060096000858152602001908152602001600020600090556008805480611bd557611bd46131ba565b5b6001900381819060005260206000200160009055905550505050565b6000611bfc83610a01565b905081600660008573ffffffffffffffffffffffffffffffffffffffff1673ffffffffffffffffffffffffffffffffffffffff168152602001908152602001600020600083815260200190815260200160002081905550806007600084815260200190815260200160002081905550505050565b600080823b905060008111915050919050565b600073ffffffffffffffffffffffffffffffffffffffff168273ffffffffffffffffffffffffffffffffffffffff1603611cf2576040517f08c379a0000000000000000000000000000000000000000000000000000000008152600401611ce990613235565b60405180910390fd5b611cfb81611103565b15611d3b576040517f08c379a0000000000000000000000000000000000000000000000000000000008152600401611d32906132a1565b60405180910390fd5b611d4760008383611671565b6001600360008473ffffffffffffffffffffffffffffffffffffffff1673ffffffffffffffffffffffffffffffffffffffff1681526020019081526020016000206000828254611d979190612fef565b92505081905550816002600083815260200190815260200160002060006101000a81548173ffffffffffffffffffffffffffffffffffffffff021916908373ffffffffffffffffffffffffffffffffffffffff160217905550808273ffffffffffffffffffffffffffffffffffffffff16600073ffffffffffffffffffffffffffffffffffffffff167fddf252ad1be2c89b69c2b068fc378daa952ba7f163c4a11628f55a4df523b3ef60405160405180910390a45050565b6000604051905090565b600080fd5b600080fd5b60007fffffffff0000000000000000000000000000000000000000000000000000000082169050919050565b611e9981611e64565b8114611ea457600080fd5b50565b600081359050611eb681611e90565b92915050565b600060208284031215611ed257611ed1611e5a565b5b6000611ee084828501611ea7565b91505092915050565b60008115159050919050565b611efe81611ee9565b82525050565b6000602082019050611f196000830184611ef5565b92915050565b600081519050919050565b600082825260208201905092915050565b60005b83811015611f59578082015181840152602081019050611f3e565b83811115611f68576000848401525b50505050565b6000601f19601f8301169050919050565b6000611f8a82611f1f565b611f948185611f2a565b9350611fa4818560208601611f3b565b611fad81611f6e565b840191505092915050565b60006020820190508181036000830152611fd28184611f7f565b905092915050565b6000819050919050565b611fed81611fda565b8114611ff857600080fd5b50565b60008135905061200a81611fe4565b92915050565b60006020828403121561202657612025611e5a565b5b600061203484828501611ffb565b91505092915050565b600073ffffffffffffffffffffffffffffffffffffffff82169050919050565b60006120688261203d565b9050919050565b6120788161205d565b82525050565b6000602082019050612093600083018461206f565b92915050565b6120a28161205d565b81146120ad57600080fd5b50565b6000813590506120bf81612099565b92915050565b600080604083850312156120dc576120db611e5a565b5b60006120ea858286016120b0565b92505060206120fb85828601611ffb565b9150509250929050565b61210e81611fda565b82525050565b60006060820190506121296000830186612105565b612136602083018561206f565b81810360408301526121488184611f7f565b9050949350505050565b60006020820190506121676000830184612105565b92915050565b60008060006060848603121561218657612185611e5a565b5b6000612194868287016120b0565b93505060206121a5868287016120b0565b92505060406121b686828701611ffb565b9150509250925092565b6000602082840312156121d6576121d5611e5a565b5b60006121e4848285016120b0565b91505092915050565b6121f681611ee9565b811461220157600080fd5b50565b600081359050612213816121ed565b92915050565b600080604083850312156122305761222f611e5a565b5b600061223e858286016120b0565b925050602061224f85828601612204565b9150509250929050565b600080fd5b600080fd5b7f4e487b7100000000000000000000000000000000000000000000000000000000600052604160045260246000fd5b61229b82611f6e565b810181811067ffffffffffffffff821117156122ba576122b9612263565b5b80604052505050565b60006122cd611e50565b90506122d98282612292565b919050565b600067ffffffffffffffff8211156122f9576122f8612263565b5b61230282611f6e565b9050602081019050919050565b82818337600083830152505050565b600061233161232c846122de565b6122c3565b90508281526020810184848401111561234d5761234c61225e565b5b61235884828561230f565b509392505050565b600082601f83011261237557612374612259565b5b813561238584826020860161231e565b91505092915050565b600080600080608085870312156123a8576123a7611e5a565b5b60006123b6878288016120b0565b94505060206123c7878288016120b0565b93505060406123d887828801611ffb565b925050606085013567ffffffffffffffff8111156123f9576123f8611e5f565b5b61240587828801612360565b91505092959194509250565b600067ffffffffffffffff82111561242c5761242b612263565b5b61243582611f6e565b9050602081019050919050565b600061245561245084612411565b6122c3565b9050828152602081018484840111156124715761247061225e565b5b61247c84828561230f565b509392505050565b600082601f83011261249957612498612259565b5b81356124a9848260208601612442565b91505092915050565b6000602082840312156124c8576124c7611e5a565b5b600082013567ffffffffffffffff8111156124e6576124e5611e5f565b5b6124f284828501612484565b91505092915050565b6000806040838503121561251257612511611e5a565b5b6000612520858286016120b0565b9250506020612531858286016120b0565b9150509250929050565b7f4e487b7100000000000000000000000000000000000000000000000000000000600052602260045260246000fd5b6000600282049050600182168061258257607f821691505b6020821081036125955761259461253b565b5b50919050565b7f4552433732313a20617070726f76656420717565727920666f72206e6f6e657860008201527f697374656e7420746f6b656e0000000000000000000000000000000000000000602082015250565b60006125f7602c83611f2a565b91506126028261259b565b604082019050919050565b60006020820190508181036000830152612626816125ea565b9050919050565b7f4552433732313a20617070726f76616c20746f2063757272656e74206f776e6560008201527f7200000000000000000000000000000000000000000000000000000000000000602082015250565b6000612689602183611f2a565b91506126948261262d565b604082019050919050565b600060208201905081810360008301526126b88161267c565b9050919050565b7f4552433732313a20617070726f76652063616c6c6572206973206e6f74206f7760008201527f6e6572206e6f7220617070726f76656420666f7220616c6c0000000000000000602082015250565b600061271b603883611f2a565b9150612726826126bf565b604082019050919050565b6000602082019050818103600083015261274a8161270e565b9050919050565b7f4552433732313a207472616e736665722063616c6c6572206973206e6f74206f60008201527f776e6572206e6f7220617070726f766564000000000000000000000000000000602082015250565b60006127ad603183611f2a565b91506127b882612751565b604082019050919050565b600060208201905081810360008301526127dc816127a0565b9050919050565b7f455243373231456e756d657261626c653a206f776e657220696e646578206f7560008201527f74206f6620626f756e6473000000000000000000000000000000000000000000602082015250565b600061283f602b83611f2a565b915061284a826127e3565b604082019050919050565b6000602082019050818103600083015261286e81612832565b9050919050565b7f455243373231456e756d657261626c653a20676c6f62616c20696e646578206f60008201527f7574206f6620626f756e64730000000000000000000000000000000000000000602082015250565b60006128d1602c83611f2a565b91506128dc82612875565b604082019050919050565b60006020820190508181036000830152612900816128c4565b9050919050565b7f4e487b7100000000000000000000000000000000000000000000000000000000600052603260045260246000fd5b7f4552433732313a206f776e657220717565727920666f72206e6f6e657869737460008201527f656e7420746f6b656e0000000000000000000000000000000000000000000000602082015250565b6000612992602983611f2a565b915061299d82612936565b604082019050919050565b600060208201905081810360008301526129c181612985565b9050919050565b7f4552433732313a2062616c616e636520717565727920666f7220746865207a6560008201527f726f206164647265737300000000000000000000000000000000000000000000602082015250565b6000612a24602a83611f2a565b9150612a2f826129c8565b604082019050919050565b60006020820190508181036000830152612a5381612a17565b9050919050565b7f4552433732313a20617070726f766520746f2063616c6c657200000000000000600082015250565b6000612a90601983611f2a565b9150612a9b82612a5a565b602082019050919050565b60006020820190508181036000830152612abf81612a83565b9050919050565b7f45524337323155524953746f726167653a2055524920717565727920666f722060008201527f6e6f6e6578697374656e7420746f6b656e000000000000000000000000000000602082015250565b6000612b22603183611f2a565b9150612b2d82612ac6565b604082019050919050565b60006020820190508181036000830152612b5181612b15565b9050919050565b60008190508160005260206000209050919050565b60006020601f8301049050919050565b600082821b905092915050565b600060088302612bba7fffffffffffffffffffffffffffffffffffffffffffffffffffffffffffffffff82612b7d565b612bc48683612b7d565b95508019841693508086168417925050509392505050565b6000819050919050565b6000612c01612bfc612bf784611fda565b612bdc565b611fda565b9050919050565b6000819050919050565b612c1b83612be6565b612c2f612c2782612c08565b848454612b8a565b825550505050565b600090565b612c44612c37565b612c4f818484612c12565b505050565b5b81811015612c7357612c68600082612c3c565b600181019050612c55565b5050565b601f821115612cb857612c8981612b58565b612c9284612b6d565b81016020851015612ca1578190505b612cb5612cad85612b6d565b830182612c54565b50505b505050565b600082821c905092915050565b6000612cdb60001984600802612cbd565b1980831691505092915050565b6000612cf48383612cca565b9150826002028217905092915050565b612d0d82611f1f565b67ffffffffffffffff811115612d2657612d25612263565b5b612d30825461256a565b612d3b828285612c77565b600060209050601f831160018114612d6e5760008415612d5c578287015190505b612d668582612ce8565b865550612dce565b601f198416612d7c86612b58565b60005b82811015612da457848901518255600182019150602085019450602081019050612d7f565b86831015612dc15784890151612dbd601f891682612cca565b8355505b6001600288020188555050505b505050505050565b7f4552433732313a206f70657261746f7220717565727920666f72206e6f6e657860008201527f697374656e7420746f6b656e0000000000000000000000000000000000000000602082015250565b6000612e32602c83611f2a565b9150612e3d82612dd6565b604082019050919050565b60006020820190508181036000830152612e6181612e25565b9050919050565b7f4552433732313a207472616e73666572206f6620746f6b656e2074686174206960008201527f73206e6f74206f776e0000000000000000000000000000000000000000000000602082015250565b6000612ec4602983611f2a565b9150612ecf82612e68565b604082019050919050565b60006020820190508181036000830152612ef381612eb7565b9050919050565b7f4552433732313a207472616e7366657220746f20746865207a65726f2061646460008201527f7265737300000000000000000000000000000000000000000000000000000000602082015250565b6000612f56602483611f2a565b9150612f6182612efa565b604082019050919050565b60006020820190508181036000830152612f8581612f49565b9050919050565b7f4e487b7100000000000000000000000000000000000000000000000000000000600052601160045260246000fd5b6000612fc682611fda565b9150612fd183611fda565b925082821015612fe457612fe3612f8c565b5b828203905092915050565b6000612ffa82611fda565b915061300583611fda565b9250827fffffffffffffffffffffffffffffffffffffffffffffffffffffffffffffffff0382111561303a57613039612f8c565b5b828201905092915050565b7f4552433732313a207472616e7366657220746f206e6f6e20455243373231526560008201527f63656976657220696d706c656d656e7465720000000000000000000000000000602082015250565b60006130a1603283611f2a565b91506130ac82613045565b604082019050919050565b600060208201905081810360008301526130d081613094565b9050919050565b600081519050919050565b600082825260208201905092915050565b60006130fe826130d7565b61310881856130e2565b9350613118818560208601611f3b565b61312181611f6e565b840191505092915050565b6000608082019050613141600083018761206f565b61314e602083018661206f565b61315b6040830185612105565b818103606083015261316d81846130f3565b905095945050505050565b60008151905061318781611e90565b92915050565b6000602082840312156131a3576131a2611e5a565b5b60006131b184828501613178565b91505092915050565b7f4e487b7100000000000000000000000000000000000000000000000000000000600052603160045260246000fd5b7f4552433732313a206d696e7420746f20746865207a65726f2061646472657373600082015250565b600061321f602083611f2a565b915061322a826131e9565b602082019050919050565b6000602082019050818103600083015261324e81613212565b9050919050565b7f4552433732313a20746f6b656e20616c7265616479206d696e74656400000000600082015250565b600061328b601c83611f2a565b915061329682613255565b602082019050919050565b600060208201905081810360008301526132ba8161327e565b905091905056fea2646970667358221220ceef7a9490605ff3ddc0a3caace8e9e1019dd87e32b9a6549688e6e2e116627564736f6c634300080f0033",
  "immutableReferences": {},
  "source": "// SPDX-License-Identifier: MIT\npragma solidity ^0.8.0;\n\nimport \"@openzeppelin/contracts/token/ERC721/ERC721.sol\";\nimport \"@openzeppelin/contracts/token/ERC721/extensions/ERC721Enumerable.sol\";\nimport \"@openzeppelin/contracts/token/ERC721/extensions/ERC721URIStorage.sol\";\nimport \"@openzeppelin/contracts/utils/Counters.sol\";\n\n\ncontract ArtToken is ERC721Enumerable{\n  using Counters for Counters.Counter;\n\n  Counters.Counter private _tokenIds;\n  address public marketplace;\n\n  struct Item {\n    uint256 id;\n    address creator;\n    string uri;//metadata url\n  }\n\n  mapping(uint256 => Item) public Items; //id => Item\n\n  constructor () ERC721(\"ArtToken\", \"ARTK\") {}\n\n  function mint(string memory uri) public returns (uint256){\n    _tokenIds.increment();\n    uint256 newItemId = _tokenIds.current();\n    _safeMint(msg.sender, newItemId);\n    approve(marketplace, newItemId);\n\n    Items[newItemId] = Item({\n      id: newItemId, \n      creator: msg.sender,\n      uri: uri\n    });\n\n    return newItemId;\n  }\n\n\n  function tokenURI(uint256 tokenId) public view override returns (string memory) {\n    require(_exists(tokenId), \"ERC721URIStorage: URI query for nonexistent token\");\n    return Items[tokenId].uri;\n  }\n\n  function setMarketplace(address market) public {\n    //require(msg.sender ==);\n    marketplace = market;\n  }\n\n}",
  "sourcePath": "/Users/jimmy/IdeaProjects/NFT-Marketplace/contracts/ArtToken.sol",
  "compiler": {
    "name": "solc",
    "version": "0.8.15+commit.e14f2714.Emscripten.clang"
  },
  "schemaVersion": "3.4.8",
  "updatedAt": "2022-08-03T11:49:01.999Z",
  "networkType": "ethereum",
  "devdoc": {
    "kind": "dev",
    "methods": {
      "approve(address,uint256)": {
        "details": "See {IERC721-approve}."
      },
      "balanceOf(address)": {
        "details": "See {IERC721-balanceOf}."
      },
      "getApproved(uint256)": {
        "details": "See {IERC721-getApproved}."
      },
      "isApprovedForAll(address,address)": {
        "details": "See {IERC721-isApprovedForAll}."
      },
      "name()": {
        "details": "See {IERC721Metadata-name}."
      },
      "ownerOf(uint256)": {
        "details": "See {IERC721-ownerOf}."
      },
      "safeTransferFrom(address,address,uint256)": {
        "details": "See {IERC721-safeTransferFrom}."
      },
      "safeTransferFrom(address,address,uint256,bytes)": {
        "details": "See {IERC721-safeTransferFrom}."
      },
      "setApprovalForAll(address,bool)": {
        "details": "See {IERC721-setApprovalForAll}."
      },
      "supportsInterface(bytes4)": {
        "details": "See {IERC165-supportsInterface}."
      },
      "symbol()": {
        "details": "See {IERC721Metadata-symbol}."
      },
      "tokenByIndex(uint256)": {
        "details": "See {IERC721Enumerable-tokenByIndex}."
      },
      "tokenOfOwnerByIndex(address,uint256)": {
        "details": "See {IERC721Enumerable-tokenOfOwnerByIndex}."
      },
      "tokenURI(uint256)": {
        "details": "See {IERC721Metadata-tokenURI}."
      },
      "totalSupply()": {
        "details": "See {IERC721Enumerable-totalSupply}."
      },
      "transferFrom(address,address,uint256)": {
        "details": "See {IERC721-transferFrom}."
      }
    },
    "version": 1
  },
  "userdoc": {
    "kind": "user",
    "methods": {},
    "version": 1
  }
}